{
  "_format": "hh-sol-artifact-1",
  "contractName": "ERCXDemo",
  "sourceName": "contracts/ERCXDemo.sol",
  "abi": [
    {
      "inputs": [
        {
          "internalType": "string",
          "name": "name",
          "type": "string"
        },
        {
          "internalType": "string",
          "name": "symbol",
          "type": "string"
        }
      ],
      "stateMutability": "nonpayable",
      "type": "constructor"
    },
    {
      "anonymous": false,
      "inputs": [
        {
          "indexed": true,
          "internalType": "address",
          "name": "owner",
          "type": "address"
        },
        {
          "indexed": true,
          "internalType": "address",
          "name": "approved",
          "type": "address"
        },
        {
          "indexed": true,
          "internalType": "uint256",
          "name": "tokenId",
          "type": "uint256"
        }
      ],
      "name": "Approval",
      "type": "event"
    },
    {
      "anonymous": false,
      "inputs": [
        {
          "indexed": true,
          "internalType": "address",
          "name": "owner",
          "type": "address"
        },
        {
          "indexed": true,
          "internalType": "address",
          "name": "operator",
          "type": "address"
        },
        {
          "indexed": false,
          "internalType": "bool",
          "name": "approved",
          "type": "bool"
        }
      ],
      "name": "ApprovalForAll",
      "type": "event"
    },
    {
      "anonymous": false,
      "inputs": [
        {
          "indexed": true,
          "internalType": "address",
          "name": "owner",
          "type": "address"
        },
        {
          "indexed": true,
          "internalType": "address",
          "name": "approved",
          "type": "address"
        },
        {
          "indexed": true,
          "internalType": "uint256",
          "name": "tokenId",
          "type": "uint256"
        }
      ],
      "name": "RentalApproval",
      "type": "event"
    },
    {
      "anonymous": false,
      "inputs": [
        {
          "indexed": true,
          "internalType": "uint256",
          "name": "tokenId",
          "type": "uint256"
        },
        {
          "indexed": true,
          "internalType": "address",
          "name": "exOwner",
          "type": "address"
        },
        {
          "indexed": false,
          "internalType": "uint256",
          "name": "deadline",
          "type": "uint256"
        }
      ],
      "name": "RentalUpdate",
      "type": "event"
    },
    {
      "anonymous": false,
      "inputs": [
        {
          "indexed": true,
          "internalType": "address",
          "name": "from",
          "type": "address"
        },
        {
          "indexed": true,
          "internalType": "address",
          "name": "to",
          "type": "address"
        },
        {
          "indexed": true,
          "internalType": "uint256",
          "name": "tokenId",
          "type": "uint256"
        }
      ],
      "name": "Transfer",
      "type": "event"
    },
    {
      "inputs": [
        {
          "internalType": "address",
          "name": "to",
          "type": "address"
        },
        {
          "internalType": "uint256",
          "name": "tokenId",
          "type": "uint256"
        }
      ],
      "name": "approve",
      "outputs": [],
      "stateMutability": "nonpayable",
      "type": "function"
    },
    {
      "inputs": [
        {
          "internalType": "address",
          "name": "to",
          "type": "address"
        },
        {
          "internalType": "uint256",
          "name": "tokenId",
          "type": "uint256"
        }
      ],
      "name": "approveRentalControl",
      "outputs": [],
      "stateMutability": "nonpayable",
      "type": "function"
    },
    {
      "inputs": [
        {
          "internalType": "address",
          "name": "owner",
          "type": "address"
        }
      ],
      "name": "balanceOf",
      "outputs": [
        {
          "internalType": "uint256",
          "name": "",
          "type": "uint256"
        }
      ],
      "stateMutability": "view",
      "type": "function"
    },
    {
      "inputs": [
        {
          "internalType": "uint256",
          "name": "tokenId",
          "type": "uint256"
        },
        {
          "internalType": "uint256",
          "name": "deadline",
          "type": "uint256"
        }
      ],
      "name": "deadlineUpdate",
      "outputs": [],
      "stateMutability": "nonpayable",
      "type": "function"
    },
    {
      "inputs": [
        {
          "internalType": "uint256",
          "name": "tokenId",
          "type": "uint256"
        }
      ],
      "name": "endRental",
      "outputs": [],
      "stateMutability": "nonpayable",
      "type": "function"
    },
    {
      "inputs": [
        {
          "internalType": "uint256",
          "name": "tokenId",
          "type": "uint256"
        }
      ],
      "name": "getApproved",
      "outputs": [
        {
          "internalType": "address",
          "name": "",
          "type": "address"
        }
      ],
      "stateMutability": "view",
      "type": "function"
    },
    {
      "inputs": [
        {
          "internalType": "uint256",
          "name": "tokenId",
          "type": "uint256"
        }
      ],
      "name": "getRentalApproved",
      "outputs": [
        {
          "internalType": "address",
          "name": "approved",
          "type": "address"
        }
      ],
      "stateMutability": "view",
      "type": "function"
    },
    {
      "inputs": [
        {
          "internalType": "address",
          "name": "owner",
          "type": "address"
        },
        {
          "internalType": "address",
          "name": "operator",
          "type": "address"
        }
      ],
      "name": "isApprovedForAll",
      "outputs": [
        {
          "internalType": "bool",
          "name": "",
          "type": "bool"
        }
      ],
      "stateMutability": "view",
      "type": "function"
    },
    {
      "inputs": [
        {
          "internalType": "address",
          "name": "to",
          "type": "address"
        },
        {
          "internalType": "uint256",
          "name": "tokenId",
          "type": "uint256"
        }
      ],
      "name": "mint",
      "outputs": [],
      "stateMutability": "nonpayable",
      "type": "function"
    },
    {
      "inputs": [],
      "name": "name",
      "outputs": [
        {
          "internalType": "string",
          "name": "",
          "type": "string"
        }
      ],
      "stateMutability": "view",
      "type": "function"
    },
    {
      "inputs": [
        {
          "internalType": "uint256",
          "name": "tokenId",
          "type": "uint256"
        }
      ],
      "name": "ownerOf",
      "outputs": [
        {
          "internalType": "address",
          "name": "",
          "type": "address"
        }
      ],
      "stateMutability": "view",
      "type": "function"
    },
    {
      "inputs": [
        {
          "internalType": "address",
          "name": "to",
          "type": "address"
        },
        {
          "internalType": "uint256",
          "name": "tokenId",
          "type": "uint256"
        },
        {
          "internalType": "uint256",
          "name": "deadline",
          "type": "uint256"
        }
      ],
      "name": "rent",
      "outputs": [],
      "stateMutability": "nonpayable",
      "type": "function"
    },
    {
      "inputs": [
        {
          "internalType": "uint256",
          "name": "tokenId",
          "type": "uint256"
        }
      ],
      "name": "rentalInfo",
      "outputs": [
        {
          "internalType": "address",
          "name": "exOwner",
          "type": "address"
        },
        {
          "internalType": "uint256",
          "name": "deadline",
          "type": "uint256"
        }
      ],
      "stateMutability": "view",
      "type": "function"
    },
    {
      "inputs": [
        {
          "internalType": "address",
          "name": "from",
          "type": "address"
        },
        {
          "internalType": "address",
          "name": "to",
          "type": "address"
        },
        {
          "internalType": "uint256",
          "name": "tokenId",
          "type": "uint256"
        }
      ],
      "name": "safeTransferFrom",
      "outputs": [],
      "stateMutability": "nonpayable",
      "type": "function"
    },
    {
      "inputs": [
        {
          "internalType": "address",
          "name": "from",
          "type": "address"
        },
        {
          "internalType": "address",
          "name": "to",
          "type": "address"
        },
        {
          "internalType": "uint256",
          "name": "tokenId",
          "type": "uint256"
        },
        {
          "internalType": "bytes",
          "name": "data",
          "type": "bytes"
        }
      ],
      "name": "safeTransferFrom",
      "outputs": [],
      "stateMutability": "nonpayable",
      "type": "function"
    },
    {
      "inputs": [
        {
          "internalType": "address",
          "name": "operator",
          "type": "address"
        },
        {
          "internalType": "bool",
          "name": "approved",
          "type": "bool"
        }
      ],
      "name": "setApprovalForAll",
      "outputs": [],
      "stateMutability": "nonpayable",
      "type": "function"
    },
    {
      "inputs": [
        {
          "internalType": "bytes4",
          "name": "interfaceId",
          "type": "bytes4"
        }
      ],
      "name": "supportsInterface",
      "outputs": [
        {
          "internalType": "bool",
          "name": "",
          "type": "bool"
        }
      ],
      "stateMutability": "view",
      "type": "function"
    },
    {
      "inputs": [],
      "name": "symbol",
      "outputs": [
        {
          "internalType": "string",
          "name": "",
          "type": "string"
        }
      ],
      "stateMutability": "view",
      "type": "function"
    },
    {
      "inputs": [
        {
          "internalType": "uint256",
          "name": "tokenId",
          "type": "uint256"
        }
      ],
      "name": "tokenURI",
      "outputs": [
        {
          "internalType": "string",
          "name": "",
          "type": "string"
        }
      ],
      "stateMutability": "view",
      "type": "function"
    },
    {
      "inputs": [
        {
          "internalType": "address",
          "name": "from",
          "type": "address"
        },
        {
          "internalType": "address",
          "name": "to",
          "type": "address"
        },
        {
          "internalType": "uint256",
          "name": "tokenId",
          "type": "uint256"
        }
      ],
      "name": "transferFrom",
      "outputs": [],
      "stateMutability": "nonpayable",
      "type": "function"
    }
  ],
  "bytecode": "0x60806040523480156200001157600080fd5b50604051620040c0380380620040c08339818101604052810190620000379190620001fe565b8181818181600090816200004c9190620004ce565b5080600190816200005e9190620004ce565b50505050505050620005b5565b6000604051905090565b600080fd5b600080fd5b600080fd5b600080fd5b6000601f19601f8301169050919050565b7f4e487b7100000000000000000000000000000000000000000000000000000000600052604160045260246000fd5b620000d48262000089565b810181811067ffffffffffffffff82111715620000f657620000f56200009a565b5b80604052505050565b60006200010b6200006b565b9050620001198282620000c9565b919050565b600067ffffffffffffffff8211156200013c576200013b6200009a565b5b620001478262000089565b9050602081019050919050565b60005b838110156200017457808201518184015260208101905062000157565b60008484015250505050565b60006200019762000191846200011e565b620000ff565b905082815260208101848484011115620001b657620001b562000084565b5b620001c384828562000154565b509392505050565b600082601f830112620001e357620001e26200007f565b5b8151620001f584826020860162000180565b91505092915050565b6000806040838503121562000218576200021762000075565b5b600083015167ffffffffffffffff8111156200023957620002386200007a565b5b6200024785828601620001cb565b925050602083015167ffffffffffffffff8111156200026b576200026a6200007a565b5b6200027985828601620001cb565b9150509250929050565b600081519050919050565b7f4e487b7100000000000000000000000000000000000000000000000000000000600052602260045260246000fd5b60006002820490506001821680620002d657607f821691505b602082108103620002ec57620002eb6200028e565b5b50919050565b60008190508160005260206000209050919050565b60006020601f8301049050919050565b600082821b905092915050565b600060088302620003567fffffffffffffffffffffffffffffffffffffffffffffffffffffffffffffffff8262000317565b62000362868362000317565b95508019841693508086168417925050509392505050565b6000819050919050565b6000819050919050565b6000620003af620003a9620003a3846200037a565b62000384565b6200037a565b9050919050565b6000819050919050565b620003cb836200038e565b620003e3620003da82620003b6565b84845462000324565b825550505050565b600090565b620003fa620003eb565b62000407818484620003c0565b505050565b5b818110156200042f5762000423600082620003f0565b6001810190506200040d565b5050565b601f8211156200047e576200044881620002f2565b620004538462000307565b8101602085101562000463578190505b6200047b620004728562000307565b8301826200040c565b50505b505050565b600082821c905092915050565b6000620004a36000198460080262000483565b1980831691505092915050565b6000620004be838362000490565b9150826002028217905092915050565b620004d98262000283565b67ffffffffffffffff811115620004f557620004f46200009a565b5b620005018254620002bd565b6200050e82828562000433565b600060209050601f83116001811462000546576000841562000531578287015190505b6200053d8582620004b0565b865550620005ad565b601f1984166200055686620002f2565b60005b82811015620005805784890151825560018201915060208501945060208101905062000559565b86831015620005a057848901516200059c601f89168262000490565b8355505b6001600288020188555050505b505050505050565b613afb80620005c56000396000f3fe608060405234801561001057600080fd5b506004361061012c5760003560e01c806370a08231116100ad578063b88d4fde11610071578063b88d4fde14610352578063c87b56dd1461036e578063d43fd5541461039e578063e985e9c5146103ba578063ffe7c8e4146103ea5761012c565b806370a082311461029c57806395d89b41146102cc57806397491d6f146102ea5780639dd5a73d14610306578063a22cb465146103365761012c565b806340c10f19116100f457806340c10f19146101e757806342842e0e146102035780634dc32a181461021f5780636116f1791461023b5780636352211e1461026c5761012c565b806301ffc9a71461013157806306fdde0314610161578063081812fc1461017f578063095ea7b3146101af57806323b872dd146101cb575b600080fd5b61014b600480360381019061014691906125aa565b610406565b60405161015891906125f2565b60405180910390f35b610169610480565b604051610176919061269d565b60405180910390f35b610199600480360381019061019491906126f5565b610512565b6040516101a69190612763565b60405180910390f35b6101c960048036038101906101c491906127aa565b610558565b005b6101e560048036038101906101e091906127ea565b6105af565b005b61020160048036038101906101fc91906127aa565b61060f565b005b61021d600480360381019061021891906127ea565b61061d565b005b6102396004803603810190610234919061283d565b61063d565b005b610255600480360381019061025091906126f5565b61094d565b60405161026392919061289f565b60405180910390f35b610286600480360381019061028191906126f5565b6109f1565b6040516102939190612763565b60405180910390f35b6102b660048036038101906102b191906128c8565b610a77565b6040516102c391906128f5565b60405180910390f35b6102d4610b2e565b6040516102e1919061269d565b60405180910390f35b61030460048036038101906102ff91906126f5565b610bc0565b005b610320600480360381019061031b91906126f5565b610df0565b60405161032d9190612763565b60405180910390f35b610350600480360381019061034b919061293c565b610e36565b005b61036c60048036038101906103679190612ab1565b610e4c565b005b610388600480360381019061038391906126f5565b610eae565b604051610395919061269d565b60405180910390f35b6103b860048036038101906103b391906127aa565b610f16565b005b6103d460048036038101906103cf9190612b34565b611109565b6040516103e191906125f2565b60405180910390f35b61040460048036038101906103ff9190612b74565b61119d565b005b60007f9360451e000000000000000000000000000000000000000000000000000000007bffffffffffffffffffffffffffffffffffffffffffffffffffffffff1916827bffffffffffffffffffffffffffffffffffffffffffffffffffffffff191614806104795750610478826113a3565b5b9050919050565b60606000805461048f90612be3565b80601f01602080910402602001604051908101604052809291908181526020018280546104bb90612be3565b80156105085780601f106104dd57610100808354040283529160200191610508565b820191906000526020600020905b8154815290600101906020018083116104eb57829003601f168201915b5050505050905090565b600061051d82611485565b6004600083815260200190815260200160002060009054906101000a900473ffffffffffffffffffffffffffffffffffffffff169050919050565b610561816114d0565b156105a1576040517f08c379a000000000000000000000000000000000000000000000000000000000815260040161059890612c86565b60405180910390fd5b6105ab828261153f565b5050565b6105c06105ba611656565b8261165e565b6105ff576040517f08c379a00000000000000000000000000000000000000000000000000000000081526004016105f690612d18565b60405180910390fd5b61060a8383836116f3565b505050565b61061982826119ec565b5050565b61063883838360405180602001604052806000815250610e4c565b505050565b60006007600084815260200190815260200160002060009054906101000a900473ffffffffffffffffffffffffffffffffffffffff16905061067d611656565b73ffffffffffffffffffffffffffffffffffffffff1661069c846109f1565b73ffffffffffffffffffffffffffffffffffffffff1614806106f057506106c1611656565b73ffffffffffffffffffffffffffffffffffffffff168173ffffffffffffffffffffffffffffffffffffffff16145b61072f576040517f08c379a000000000000000000000000000000000000000000000000000000000815260040161072690612daa565b60405180910390fd5b610738836114d0565b15610778576040517f08c379a000000000000000000000000000000000000000000000000000000000815260040161076f90612e16565b60405180910390fd5b4282116107ba576040517f08c379a00000000000000000000000000000000000000000000000000000000081526004016107b190612ea8565b60405180910390fd5b600073ffffffffffffffffffffffffffffffffffffffff168473ffffffffffffffffffffffffffffffffffffffff1603610829576040517f08c379a000000000000000000000000000000000000000000000000000000000815260040161082090612f3a565b60405180910390fd5b6000600660008581526020019081526020016000209050600061084b85611c09565b90506108588187876116f3565b826007600087815260200190815260200160002060006101000a81548173ffffffffffffffffffffffffffffffffffffffff021916908373ffffffffffffffffffffffffffffffffffffffff160217905550808260000160006101000a81548173ffffffffffffffffffffffffffffffffffffffff021916908373ffffffffffffffffffffffffffffffffffffffff1602179055508382600101819055508073ffffffffffffffffffffffffffffffffffffffff16857f80a6be100498a97a416f2eed3398281d1d00c4297200b49cf2853d773de7c9df8660405161093d91906128f5565b60405180910390a3505050505050565b6000808261095a816114d0565b610999576040517f08c379a000000000000000000000000000000000000000000000000000000000815260040161099090612fcc565b60405180910390fd5b6006600085815260200190815260200160002060000160009054906101000a900473ffffffffffffffffffffffffffffffffffffffff1660066000868152602001908152602001600020600101549250925050915091565b6000806109fd83611c09565b9050600073ffffffffffffffffffffffffffffffffffffffff168173ffffffffffffffffffffffffffffffffffffffff1603610a6e576040517f08c379a0000000000000000000000000000000000000000000000000000000008152600401610a6590613038565b60405180910390fd5b80915050919050565b60008073ffffffffffffffffffffffffffffffffffffffff168273ffffffffffffffffffffffffffffffffffffffff1603610ae7576040517f08c379a0000000000000000000000000000000000000000000000000000000008152600401610ade906130ca565b60405180910390fd5b600360008373ffffffffffffffffffffffffffffffffffffffff1673ffffffffffffffffffffffffffffffffffffffff168152602001908152602001600020549050919050565b606060018054610b3d90612be3565b80601f0160208091040260200160405190810160405280929190818152602001828054610b6990612be3565b8015610bb65780601f10610b8b57610100808354040283529160200191610bb6565b820191906000526020600020905b815481529060010190602001808311610b9957829003601f168201915b5050505050905090565b80610bca816114d0565b610c09576040517f08c379a0000000000000000000000000000000000000000000000000000000008152600401610c0090612fcc565b60405180910390fd5b60006006600084815260200190815260200160002060000160009054906101000a900473ffffffffffffffffffffffffffffffffffffffff169050600060066000858152602001908152602001600020600101549050428110610ca1576040517f08c379a0000000000000000000000000000000000000000000000000000000008152600401610c9890613136565b60405180910390fd5b60006007600086815260200190815260200160002060009054906101000a900473ffffffffffffffffffffffffffffffffffffffff16905060066000868152602001908152602001600020600080820160006101000a81549073ffffffffffffffffffffffffffffffffffffffff021916905560018201600090555050610d31610d2a86611c09565b84876116f3565b806007600087815260200190815260200160002060006101000a81548173ffffffffffffffffffffffffffffffffffffffff021916908373ffffffffffffffffffffffffffffffffffffffff160217905550600073ffffffffffffffffffffffffffffffffffffffff16857f80a6be100498a97a416f2eed3398281d1d00c4297200b49cf2853d773de7c9df6006600089815260200190815260200160002060010154604051610de191906128f5565b60405180910390a35050505050565b6000610dfb82611485565b6007600083815260200190815260200160002060009054906101000a900473ffffffffffffffffffffffffffffffffffffffff169050919050565b610e48610e41611656565b8383611c46565b5050565b610e5d610e57611656565b8361165e565b610e9c576040517f08c379a0000000000000000000000000000000000000000000000000000000008152600401610e9390612d18565b60405180910390fd5b610ea884848484611db2565b50505050565b6060610eb982611485565b6000610ec3611e0e565b90506000815111610ee35760405180602001604052806000815250610f0e565b80610eed84611e25565b604051602001610efe929190613192565b6040516020818303038152906040525b915050919050565b610f1f816114d0565b15610f5f576040517f08c379a0000000000000000000000000000000000000000000000000000000008152600401610f5690612c86565b60405180910390fd5b6000610f6a826109f1565b90508073ffffffffffffffffffffffffffffffffffffffff168373ffffffffffffffffffffffffffffffffffffffff1603610fda576040517f08c379a0000000000000000000000000000000000000000000000000000000008152600401610fd190613228565b60405180910390fd5b8073ffffffffffffffffffffffffffffffffffffffff16610ff9611656565b73ffffffffffffffffffffffffffffffffffffffff161461104f576040517f08c379a0000000000000000000000000000000000000000000000000000000008152600401611046906132ba565b60405180910390fd5b826007600084815260200190815260200160002060006101000a81548173ffffffffffffffffffffffffffffffffffffffff021916908373ffffffffffffffffffffffffffffffffffffffff160217905550818373ffffffffffffffffffffffffffffffffffffffff166110c284611c09565b73ffffffffffffffffffffffffffffffffffffffff167ff243cacb233b6a27a36f95f7df2e03ba36ca8d8b6f70cb85f7ab191ea55d45ad60405160405180910390a4505050565b6000600560008473ffffffffffffffffffffffffffffffffffffffff1673ffffffffffffffffffffffffffffffffffffffff16815260200190815260200160002060008373ffffffffffffffffffffffffffffffffffffffff1673ffffffffffffffffffffffffffffffffffffffff16815260200190815260200160002060009054906101000a900460ff16905092915050565b816111a7816114d0565b6111e6576040517f08c379a00000000000000000000000000000000000000000000000000000000081526004016111dd90612fcc565b60405180910390fd5b6000600660008581526020019081526020016000209050611205611656565b73ffffffffffffffffffffffffffffffffffffffff168160000160009054906101000a900473ffffffffffffffffffffffffffffffffffffffff1673ffffffffffffffffffffffffffffffffffffffff16148061129c5750611265611656565b73ffffffffffffffffffffffffffffffffffffffff1661128485610df0565b73ffffffffffffffffffffffffffffffffffffffff16145b6112db576040517f08c379a00000000000000000000000000000000000000000000000000000000081526004016112d290613372565b60405180910390fd5b80600101548311611321576040517f08c379a0000000000000000000000000000000000000000000000000000000008152600401611318906133de565b60405180910390fd5b8281600101819055508060000160009054906101000a900473ffffffffffffffffffffffffffffffffffffffff1673ffffffffffffffffffffffffffffffffffffffff16847f80a6be100498a97a416f2eed3398281d1d00c4297200b49cf2853d773de7c9df8560405161139591906128f5565b60405180910390a350505050565b60007f80ac58cd000000000000000000000000000000000000000000000000000000007bffffffffffffffffffffffffffffffffffffffffffffffffffffffff1916827bffffffffffffffffffffffffffffffffffffffffffffffffffffffff1916148061146e57507f5b5e139f000000000000000000000000000000000000000000000000000000007bffffffffffffffffffffffffffffffffffffffffffffffffffffffff1916827bffffffffffffffffffffffffffffffffffffffffffffffffffffffff1916145b8061147e575061147d82611ef3565b5b9050919050565b61148e81611f5d565b6114cd576040517f08c379a00000000000000000000000000000000000000000000000000000000081526004016114c490613038565b60405180910390fd5b50565b60008073ffffffffffffffffffffffffffffffffffffffff166006600084815260200190815260200160002060000160009054906101000a900473ffffffffffffffffffffffffffffffffffffffff1673ffffffffffffffffffffffffffffffffffffffff1614159050919050565b600061154a826109f1565b90508073ffffffffffffffffffffffffffffffffffffffff168373ffffffffffffffffffffffffffffffffffffffff16036115ba576040517f08c379a00000000000000000000000000000000000000000000000000000000081526004016115b190613470565b60405180910390fd5b8073ffffffffffffffffffffffffffffffffffffffff166115d9611656565b73ffffffffffffffffffffffffffffffffffffffff161480611608575061160781611602611656565b611109565b5b611647576040517f08c379a000000000000000000000000000000000000000000000000000000000815260040161163e90613502565b60405180910390fd5b6116518383611f9e565b505050565b600033905090565b60008061166a836109f1565b90508073ffffffffffffffffffffffffffffffffffffffff168473ffffffffffffffffffffffffffffffffffffffff1614806116ac57506116ab8185611109565b5b806116ea57508373ffffffffffffffffffffffffffffffffffffffff166116d284610512565b73ffffffffffffffffffffffffffffffffffffffff16145b91505092915050565b8273ffffffffffffffffffffffffffffffffffffffff16611713826109f1565b73ffffffffffffffffffffffffffffffffffffffff1614611769576040517f08c379a000000000000000000000000000000000000000000000000000000000815260040161176090613594565b60405180910390fd5b600073ffffffffffffffffffffffffffffffffffffffff168273ffffffffffffffffffffffffffffffffffffffff16036117d8576040517f08c379a00000000000000000000000000000000000000000000000000000000081526004016117cf90613626565b60405180910390fd5b6117e58383836001612057565b8273ffffffffffffffffffffffffffffffffffffffff16611805826109f1565b73ffffffffffffffffffffffffffffffffffffffff161461185b576040517f08c379a000000000000000000000000000000000000000000000000000000000815260040161185290613594565b60405180910390fd5b6004600082815260200190815260200160002060006101000a81549073ffffffffffffffffffffffffffffffffffffffff02191690556001600360008573ffffffffffffffffffffffffffffffffffffffff1673ffffffffffffffffffffffffffffffffffffffff168152602001908152602001600020600082825403925050819055506001600360008473ffffffffffffffffffffffffffffffffffffffff1673ffffffffffffffffffffffffffffffffffffffff16815260200190815260200160002060008282540192505081905550816002600083815260200190815260200160002060006101000a81548173ffffffffffffffffffffffffffffffffffffffff021916908373ffffffffffffffffffffffffffffffffffffffff160217905550808273ffffffffffffffffffffffffffffffffffffffff168473ffffffffffffffffffffffffffffffffffffffff167fddf252ad1be2c89b69c2b068fc378daa952ba7f163c4a11628f55a4df523b3ef60405160405180910390a46119e78383836001612115565b505050565b600073ffffffffffffffffffffffffffffffffffffffff168273ffffffffffffffffffffffffffffffffffffffff1603611a5b576040517f08c379a0000000000000000000000000000000000000000000000000000000008152600401611a5290613692565b60405180910390fd5b611a6481611f5d565b15611aa4576040517f08c379a0000000000000000000000000000000000000000000000000000000008152600401611a9b906136fe565b60405180910390fd5b611ab2600083836001612057565b611abb81611f5d565b15611afb576040517f08c379a0000000000000000000000000000000000000000000000000000000008152600401611af2906136fe565b60405180910390fd5b6001600360008473ffffffffffffffffffffffffffffffffffffffff1673ffffffffffffffffffffffffffffffffffffffff16815260200190815260200160002060008282540192505081905550816002600083815260200190815260200160002060006101000a81548173ffffffffffffffffffffffffffffffffffffffff021916908373ffffffffffffffffffffffffffffffffffffffff160217905550808273ffffffffffffffffffffffffffffffffffffffff16600073ffffffffffffffffffffffffffffffffffffffff167fddf252ad1be2c89b69c2b068fc378daa952ba7f163c4a11628f55a4df523b3ef60405160405180910390a4611c05600083836001612115565b5050565b60006002600083815260200190815260200160002060009054906101000a900473ffffffffffffffffffffffffffffffffffffffff169050919050565b8173ffffffffffffffffffffffffffffffffffffffff168373ffffffffffffffffffffffffffffffffffffffff1603611cb4576040517f08c379a0000000000000000000000000000000000000000000000000000000008152600401611cab9061376a565b60405180910390fd5b80600560008573ffffffffffffffffffffffffffffffffffffffff1673ffffffffffffffffffffffffffffffffffffffff16815260200190815260200160002060008473ffffffffffffffffffffffffffffffffffffffff1673ffffffffffffffffffffffffffffffffffffffff16815260200190815260200160002060006101000a81548160ff0219169083151502179055508173ffffffffffffffffffffffffffffffffffffffff168373ffffffffffffffffffffffffffffffffffffffff167f17307eab39ab6107e8899845ad3d59bd9653f200f220920489ca2b5937696c3183604051611da591906125f2565b60405180910390a3505050565b611dbd8484846116f3565b611dc98484848461211b565b611e08576040517f08c379a0000000000000000000000000000000000000000000000000000000008152600401611dff906137fc565b60405180910390fd5b50505050565b606060405180602001604052806000815250905090565b606060006001611e34846122a2565b01905060008167ffffffffffffffff811115611e5357611e52612986565b5b6040519080825280601f01601f191660200182016040528015611e855781602001600182028036833780820191505090505b509050600082602001820190505b600115611ee8578080600190039150507f3031323334353637383961626364656600000000000000000000000000000000600a86061a8153600a8581611edc57611edb61381c565b5b04945060008503611e93575b819350505050919050565b60007f01ffc9a7000000000000000000000000000000000000000000000000000000007bffffffffffffffffffffffffffffffffffffffffffffffffffffffff1916827bffffffffffffffffffffffffffffffffffffffffffffffffffffffff1916149050919050565b60008073ffffffffffffffffffffffffffffffffffffffff16611f7f83611c09565b73ffffffffffffffffffffffffffffffffffffffff1614159050919050565b816004600083815260200190815260200160002060006101000a81548173ffffffffffffffffffffffffffffffffffffffff021916908373ffffffffffffffffffffffffffffffffffffffff160217905550808273ffffffffffffffffffffffffffffffffffffffff16612011836109f1565b73ffffffffffffffffffffffffffffffffffffffff167f8c5be1e5ebec7d5bd14f71427d1e84f3dd0314c0f7b2291e5b200ac8c7c3b92560405160405180910390a45050565b612063848484846123f5565b60008290505b8183612075919061387a565b81101561210e57612085816114d0565b156120c5576040517f08c379a00000000000000000000000000000000000000000000000000000000081526004016120bc90613946565b60405180910390fd5b6007600082815260200190815260200160002060006101000a81549073ffffffffffffffffffffffffffffffffffffffff0219169055808061210690613966565b915050612069565b5050505050565b50505050565b600061213c8473ffffffffffffffffffffffffffffffffffffffff1661251b565b15612295578373ffffffffffffffffffffffffffffffffffffffff1663150b7a02612165611656565b8786866040518563ffffffff1660e01b81526004016121879493929190613a03565b6020604051808303816000875af19250505080156121c357506040513d601f19601f820116820180604052508101906121c09190613a64565b60015b612245573d80600081146121f3576040519150601f19603f3d011682016040523d82523d6000602084013e6121f8565b606091505b50600081510361223d576040517f08c379a0000000000000000000000000000000000000000000000000000000008152600401612234906137fc565b60405180910390fd5b805181602001fd5b63150b7a0260e01b7bffffffffffffffffffffffffffffffffffffffffffffffffffffffff1916817bffffffffffffffffffffffffffffffffffffffffffffffffffffffff19161491505061229a565b600190505b949350505050565b600080600090507a184f03e93ff9f4daa797ed6e38ed64bf6a1f0100000000000000008310612300577a184f03e93ff9f4daa797ed6e38ed64bf6a1f01000000000000000083816122f6576122f561381c565b5b0492506040810190505b6d04ee2d6d415b85acef8100000000831061233d576d04ee2d6d415b85acef810000000083816123335761233261381c565b5b0492506020810190505b662386f26fc10000831061236c57662386f26fc1000083816123625761236161381c565b5b0492506010810190505b6305f5e1008310612395576305f5e100838161238b5761238a61381c565b5b0492506008810190505b61271083106123ba5761271083816123b0576123af61381c565b5b0492506004810190505b606483106123dd57606483816123d3576123d261381c565b5b0492506002810190505b600a83106123ec576001810190505b80915050919050565b600181111561251557600073ffffffffffffffffffffffffffffffffffffffff168473ffffffffffffffffffffffffffffffffffffffff16146124895780600360008673ffffffffffffffffffffffffffffffffffffffff1673ffffffffffffffffffffffffffffffffffffffff16815260200190815260200160002060008282546124819190613a91565b925050819055505b600073ffffffffffffffffffffffffffffffffffffffff168373ffffffffffffffffffffffffffffffffffffffff16146125145780600360008573ffffffffffffffffffffffffffffffffffffffff1673ffffffffffffffffffffffffffffffffffffffff168152602001908152602001600020600082825461250c919061387a565b925050819055505b5b50505050565b6000808273ffffffffffffffffffffffffffffffffffffffff163b119050919050565b6000604051905090565b600080fd5b600080fd5b60007fffffffff0000000000000000000000000000000000000000000000000000000082169050919050565b61258781612552565b811461259257600080fd5b50565b6000813590506125a48161257e565b92915050565b6000602082840312156125c0576125bf612548565b5b60006125ce84828501612595565b91505092915050565b60008115159050919050565b6125ec816125d7565b82525050565b600060208201905061260760008301846125e3565b92915050565b600081519050919050565b600082825260208201905092915050565b60005b8381101561264757808201518184015260208101905061262c565b60008484015250505050565b6000601f19601f8301169050919050565b600061266f8261260d565b6126798185612618565b9350612689818560208601612629565b61269281612653565b840191505092915050565b600060208201905081810360008301526126b78184612664565b905092915050565b6000819050919050565b6126d2816126bf565b81146126dd57600080fd5b50565b6000813590506126ef816126c9565b92915050565b60006020828403121561270b5761270a612548565b5b6000612719848285016126e0565b91505092915050565b600073ffffffffffffffffffffffffffffffffffffffff82169050919050565b600061274d82612722565b9050919050565b61275d81612742565b82525050565b60006020820190506127786000830184612754565b92915050565b61278781612742565b811461279257600080fd5b50565b6000813590506127a48161277e565b92915050565b600080604083850312156127c1576127c0612548565b5b60006127cf85828601612795565b92505060206127e0858286016126e0565b9150509250929050565b60008060006060848603121561280357612802612548565b5b600061281186828701612795565b935050602061282286828701612795565b9250506040612833868287016126e0565b9150509250925092565b60008060006060848603121561285657612855612548565b5b600061286486828701612795565b9350506020612875868287016126e0565b9250506040612886868287016126e0565b9150509250925092565b612899816126bf565b82525050565b60006040820190506128b46000830185612754565b6128c16020830184612890565b9392505050565b6000602082840312156128de576128dd612548565b5b60006128ec84828501612795565b91505092915050565b600060208201905061290a6000830184612890565b92915050565b612919816125d7565b811461292457600080fd5b50565b60008135905061293681612910565b92915050565b6000806040838503121561295357612952612548565b5b600061296185828601612795565b925050602061297285828601612927565b9150509250929050565b600080fd5b600080fd5b7f4e487b7100000000000000000000000000000000000000000000000000000000600052604160045260246000fd5b6129be82612653565b810181811067ffffffffffffffff821117156129dd576129dc612986565b5b80604052505050565b60006129f061253e565b90506129fc82826129b5565b919050565b600067ffffffffffffffff821115612a1c57612a1b612986565b5b612a2582612653565b9050602081019050919050565b82818337600083830152505050565b6000612a54612a4f84612a01565b6129e6565b905082815260208101848484011115612a7057612a6f612981565b5b612a7b848285612a32565b509392505050565b600082601f830112612a9857612a9761297c565b5b8135612aa8848260208601612a41565b91505092915050565b60008060008060808587031215612acb57612aca612548565b5b6000612ad987828801612795565b9450506020612aea87828801612795565b9350506040612afb878288016126e0565b925050606085013567ffffffffffffffff811115612b1c57612b1b61254d565b5b612b2887828801612a83565b91505092959194509250565b60008060408385031215612b4b57612b4a612548565b5b6000612b5985828601612795565b9250506020612b6a85828601612795565b9150509250929050565b60008060408385031215612b8b57612b8a612548565b5b6000612b99858286016126e0565b9250506020612baa858286016126e0565b9150509250929050565b7f4e487b7100000000000000000000000000000000000000000000000000000000600052602260045260246000fd5b60006002820490506001821680612bfb57607f821691505b602082108103612c0e57612c0d612bb4565b5b50919050565b7f455243583a2043616e6e6f7420617070726f76652072656e74656420746f6b6560008201527f6e00000000000000000000000000000000000000000000000000000000000000602082015250565b6000612c70602183612618565b9150612c7b82612c14565b604082019050919050565b60006020820190508181036000830152612c9f81612c63565b9050919050565b7f4552433732313a2063616c6c6572206973206e6f7420746f6b656e206f776e6560008201527f72206f7220617070726f76656400000000000000000000000000000000000000602082015250565b6000612d02602d83612618565b9150612d0d82612ca6565b604082019050919050565b60006020820190508181036000830152612d3181612cf5565b9050919050565b7f455243583a2043616e2062652063616c6c6564206f6e6c79206279206f776e6560008201527f72206f72206164647265737320617070726f76656420666f722072656e74616c602082015250565b6000612d94604083612618565b9150612d9f82612d38565b604082019050919050565b60006020820190508181036000830152612dc381612d87565b9050919050565b7f455243583a2043616e6e6f742073756272656e74000000000000000000000000600082015250565b6000612e00601483612618565b9150612e0b82612dca565b602082019050919050565b60006020820190508181036000830152612e2f81612df3565b9050919050565b7f455243583a2052656e74616c20646561646c696e65206578706972656420796560008201527f7400000000000000000000000000000000000000000000000000000000000000602082015250565b6000612e92602183612618565b9150612e9d82612e36565b604082019050919050565b60006020820190508181036000830152612ec181612e85565b9050919050565b7f455243583a2063616e6e6f742072656e7420746f20746865207a65726f20616460008201527f6472657373000000000000000000000000000000000000000000000000000000602082015250565b6000612f24602583612618565b9150612f2f82612ec8565b604082019050919050565b60006020820190508181036000830152612f5381612f17565b9050919050565b7f455243583a20546f6b656e206d7573742062652063757272656e746c7920726560008201527f6e74656400000000000000000000000000000000000000000000000000000000602082015250565b6000612fb6602483612618565b9150612fc182612f5a565b604082019050919050565b60006020820190508181036000830152612fe581612fa9565b9050919050565b7f4552433732313a20696e76616c696420746f6b656e2049440000000000000000600082015250565b6000613022601883612618565b915061302d82612fec565b602082019050919050565b6000602082019050818103600083015261305181613015565b9050919050565b7f4552433732313a2061646472657373207a65726f206973206e6f74206120766160008201527f6c6964206f776e65720000000000000000000000000000000000000000000000602082015250565b60006130b4602983612618565b91506130bf82613058565b604082019050919050565b600060208201905081810360008301526130e3816130a7565b9050919050565b7f455243583a2052656e74616c206e6f7420657870697265642079657400000000600082015250565b6000613120601c83612618565b915061312b826130ea565b602082019050919050565b6000602082019050818103600083015261314f81613113565b9050919050565b600081905092915050565b600061316c8261260d565b6131768185613156565b9350613186818560208601612629565b80840191505092915050565b600061319e8285613161565b91506131aa8284613161565b91508190509392505050565b7f455243583a2052656e74616c20617070726f76616c20746f2063757272656e7460008201527f206f776e65720000000000000000000000000000000000000000000000000000602082015250565b6000613212602683612618565b915061321d826131b6565b604082019050919050565b6000602082019050818103600083015261324181613205565b9050919050565b7f455243583a20617070726f76652063616c6c6572206973206e6f7420746f6b6560008201527f6e206f776e657200000000000000000000000000000000000000000000000000602082015250565b60006132a4602783612618565b91506132af82613248565b604082019050919050565b600060208201905081810360008301526132d381613297565b9050919050565b7f455243583a2043616e2062652063616c6c6564206f6e6c792062792072656e7460008201527f6572206f72206164647265737320617070726f76656420666f722072656e746160208201527f6c00000000000000000000000000000000000000000000000000000000000000604082015250565b600061335c604183612618565b9150613367826132da565b606082019050919050565b6000602082019050818103600083015261338b8161334f565b9050919050565b7f455243583a2043616e6e6f7420616e746963697061746520646561646c696e65600082015250565b60006133c8602083612618565b91506133d382613392565b602082019050919050565b600060208201905081810360008301526133f7816133bb565b9050919050565b7f4552433732313a20617070726f76616c20746f2063757272656e74206f776e6560008201527f7200000000000000000000000000000000000000000000000000000000000000602082015250565b600061345a602183612618565b9150613465826133fe565b604082019050919050565b600060208201905081810360008301526134898161344d565b9050919050565b7f4552433732313a20617070726f76652063616c6c6572206973206e6f7420746f60008201527f6b656e206f776e6572206f7220617070726f76656420666f7220616c6c000000602082015250565b60006134ec603d83612618565b91506134f782613490565b604082019050919050565b6000602082019050818103600083015261351b816134df565b9050919050565b7f4552433732313a207472616e736665722066726f6d20696e636f72726563742060008201527f6f776e6572000000000000000000000000000000000000000000000000000000602082015250565b600061357e602583612618565b915061358982613522565b604082019050919050565b600060208201905081810360008301526135ad81613571565b9050919050565b7f4552433732313a207472616e7366657220746f20746865207a65726f2061646460008201527f7265737300000000000000000000000000000000000000000000000000000000602082015250565b6000613610602483612618565b915061361b826135b4565b604082019050919050565b6000602082019050818103600083015261363f81613603565b9050919050565b7f4552433732313a206d696e7420746f20746865207a65726f2061646472657373600082015250565b600061367c602083612618565b915061368782613646565b602082019050919050565b600060208201905081810360008301526136ab8161366f565b9050919050565b7f4552433732313a20746f6b656e20616c7265616479206d696e74656400000000600082015250565b60006136e8601c83612618565b91506136f3826136b2565b602082019050919050565b60006020820190508181036000830152613717816136db565b9050919050565b7f4552433732313a20617070726f766520746f2063616c6c657200000000000000600082015250565b6000613754601983612618565b915061375f8261371e565b602082019050919050565b6000602082019050818103600083015261378381613747565b9050919050565b7f4552433732313a207472616e7366657220746f206e6f6e20455243373231526560008201527f63656976657220696d706c656d656e7465720000000000000000000000000000602082015250565b60006137e6603283612618565b91506137f18261378a565b604082019050919050565b60006020820190508181036000830152613815816137d9565b9050919050565b7f4e487b7100000000000000000000000000000000000000000000000000000000600052601260045260246000fd5b7f4e487b7100000000000000000000000000000000000000000000000000000000600052601160045260246000fd5b6000613885826126bf565b9150613890836126bf565b92508282019050808211156138a8576138a761384b565b5b92915050565b7f455243583a2043616e6e6f7420747261736665722072656e74656420746f6b6560008201527f6e2e2049662072656e74616c20657870697265642063616c6c20656e6452656e60208201527f74616c206265666f726500000000000000000000000000000000000000000000604082015250565b6000613930604a83612618565b915061393b826138ae565b606082019050919050565b6000602082019050818103600083015261395f81613923565b9050919050565b6000613971826126bf565b91507fffffffffffffffffffffffffffffffffffffffffffffffffffffffffffffffff82036139a3576139a261384b565b5b600182019050919050565b600081519050919050565b600082825260208201905092915050565b60006139d5826139ae565b6139df81856139b9565b93506139ef818560208601612629565b6139f881612653565b840191505092915050565b6000608082019050613a186000830187612754565b613a256020830186612754565b613a326040830185612890565b8181036060830152613a4481846139ca565b905095945050505050565b600081519050613a5e8161257e565b92915050565b600060208284031215613a7a57613a79612548565b5b6000613a8884828501613a4f565b91505092915050565b6000613a9c826126bf565b9150613aa7836126bf565b9250828203905081811115613abf57613abe61384b565b5b9291505056fea2646970667358221220bcca6cc03a81412ef2685a15759ae79e1abfc3b72e56cb18898fc345bd3856bb64736f6c63430008110033",
  "linkReferences": {},
  "deployedLinkReferences": {}
}