{
  "_format": "hh-sol-artifact-1",
  "contractName": "ERCX_loan_demo",
  "sourceName": "contracts/ERCX_loan_demo.sol",
  "abi": [
    {
      "inputs": [
        {
          "internalType": "string",
          "name": "name",
          "type": "string"
        },
        {
          "internalType": "string",
          "name": "symbol",
          "type": "string"
        }
      ],
      "stateMutability": "nonpayable",
      "type": "constructor"
    },
    {
      "anonymous": false,
      "inputs": [
        {
          "indexed": true,
          "internalType": "address",
          "name": "owner",
          "type": "address"
        },
        {
          "indexed": true,
          "internalType": "address",
          "name": "approved",
          "type": "address"
        },
        {
          "indexed": true,
          "internalType": "uint256",
          "name": "tokenId",
          "type": "uint256"
        }
      ],
      "name": "Approval",
      "type": "event"
    },
    {
      "anonymous": false,
      "inputs": [
        {
          "indexed": true,
          "internalType": "address",
          "name": "owner",
          "type": "address"
        },
        {
          "indexed": true,
          "internalType": "address",
          "name": "operator",
          "type": "address"
        },
        {
          "indexed": false,
          "internalType": "bool",
          "name": "approved",
          "type": "bool"
        }
      ],
      "name": "ApprovalForAll",
      "type": "event"
    },
    {
      "anonymous": false,
      "inputs": [
        {
          "indexed": true,
          "internalType": "uint256",
          "name": "tokenId",
          "type": "uint256"
        }
      ],
      "name": "InstallmentPayment",
      "type": "event"
    },
    {
      "anonymous": false,
      "inputs": [
        {
          "indexed": true,
          "internalType": "address",
          "name": "owner",
          "type": "address"
        },
        {
          "indexed": true,
          "internalType": "address",
          "name": "approved",
          "type": "address"
        },
        {
          "indexed": true,
          "internalType": "uint256",
          "name": "tokenId",
          "type": "uint256"
        }
      ],
      "name": "LoanApproval",
      "type": "event"
    },
    {
      "anonymous": false,
      "inputs": [
        {
          "indexed": true,
          "internalType": "uint256",
          "name": "tokenId",
          "type": "uint256"
        },
        {
          "indexed": false,
          "internalType": "bool",
          "name": "expired",
          "type": "bool"
        }
      ],
      "name": "LoanTermination",
      "type": "event"
    },
    {
      "anonymous": false,
      "inputs": [
        {
          "indexed": true,
          "internalType": "uint256",
          "name": "tokenId",
          "type": "uint256"
        },
        {
          "indexed": true,
          "internalType": "address",
          "name": "exOwner",
          "type": "address"
        },
        {
          "indexed": false,
          "internalType": "uint256",
          "name": "installmentAmount",
          "type": "uint256"
        },
        {
          "indexed": false,
          "internalType": "uint256",
          "name": "frequency",
          "type": "uint256"
        },
        {
          "indexed": false,
          "internalType": "uint256",
          "name": "nInstallments",
          "type": "uint256"
        }
      ],
      "name": "LoanUpdate",
      "type": "event"
    },
    {
      "anonymous": false,
      "inputs": [
        {
          "indexed": true,
          "internalType": "address",
          "name": "from",
          "type": "address"
        },
        {
          "indexed": true,
          "internalType": "address",
          "name": "to",
          "type": "address"
        },
        {
          "indexed": true,
          "internalType": "uint256",
          "name": "tokenId",
          "type": "uint256"
        }
      ],
      "name": "LoanedTokenTransfer",
      "type": "event"
    },
    {
      "anonymous": false,
      "inputs": [
        {
          "indexed": true,
          "internalType": "address",
          "name": "from",
          "type": "address"
        },
        {
          "indexed": true,
          "internalType": "address",
          "name": "to",
          "type": "address"
        },
        {
          "indexed": true,
          "internalType": "uint256",
          "name": "tokenId",
          "type": "uint256"
        }
      ],
      "name": "Transfer",
      "type": "event"
    },
    {
      "inputs": [
        {
          "internalType": "address",
          "name": "to",
          "type": "address"
        },
        {
          "internalType": "uint256",
          "name": "tokenId",
          "type": "uint256"
        }
      ],
      "name": "approve",
      "outputs": [],
      "stateMutability": "nonpayable",
      "type": "function"
    },
    {
      "inputs": [
        {
          "internalType": "address",
          "name": "to",
          "type": "address"
        },
        {
          "internalType": "uint256",
          "name": "tokenId",
          "type": "uint256"
        }
      ],
      "name": "approveLoanControl",
      "outputs": [],
      "stateMutability": "nonpayable",
      "type": "function"
    },
    {
      "inputs": [
        {
          "internalType": "address",
          "name": "owner",
          "type": "address"
        }
      ],
      "name": "balanceOf",
      "outputs": [
        {
          "internalType": "uint256",
          "name": "",
          "type": "uint256"
        }
      ],
      "stateMutability": "view",
      "type": "function"
    },
    {
      "inputs": [
        {
          "internalType": "uint256",
          "name": "tokenId",
          "type": "uint256"
        }
      ],
      "name": "endLoan",
      "outputs": [],
      "stateMutability": "nonpayable",
      "type": "function"
    },
    {
      "inputs": [
        {
          "internalType": "uint256",
          "name": "tokenId",
          "type": "uint256"
        }
      ],
      "name": "getApproved",
      "outputs": [
        {
          "internalType": "address",
          "name": "",
          "type": "address"
        }
      ],
      "stateMutability": "view",
      "type": "function"
    },
    {
      "inputs": [
        {
          "internalType": "uint256",
          "name": "tokenId",
          "type": "uint256"
        }
      ],
      "name": "getLoanApproved",
      "outputs": [
        {
          "internalType": "address",
          "name": "approved",
          "type": "address"
        }
      ],
      "stateMutability": "view",
      "type": "function"
    },
    {
      "inputs": [
        {
          "internalType": "address",
          "name": "owner",
          "type": "address"
        },
        {
          "internalType": "address",
          "name": "operator",
          "type": "address"
        }
      ],
      "name": "isApprovedForAll",
      "outputs": [
        {
          "internalType": "bool",
          "name": "",
          "type": "bool"
        }
      ],
      "stateMutability": "view",
      "type": "function"
    },
    {
      "inputs": [
        {
          "internalType": "address",
          "name": "to",
          "type": "address"
        },
        {
          "internalType": "uint256",
          "name": "tokenId",
          "type": "uint256"
        }
      ],
      "name": "mint",
      "outputs": [],
      "stateMutability": "nonpayable",
      "type": "function"
    },
    {
      "inputs": [],
      "name": "name",
      "outputs": [
        {
          "internalType": "string",
          "name": "",
          "type": "string"
        }
      ],
      "stateMutability": "view",
      "type": "function"
    },
    {
      "inputs": [
        {
          "internalType": "uint256",
          "name": "tokenId",
          "type": "uint256"
        }
      ],
      "name": "ownerOf",
      "outputs": [
        {
          "internalType": "address",
          "name": "",
          "type": "address"
        }
      ],
      "stateMutability": "view",
      "type": "function"
    },
    {
      "inputs": [
        {
          "internalType": "uint256",
          "name": "tokenId",
          "type": "uint256"
        }
      ],
      "name": "payInstallment",
      "outputs": [],
      "stateMutability": "payable",
      "type": "function"
    },
    {
      "inputs": [
        {
          "internalType": "address",
          "name": "from",
          "type": "address"
        },
        {
          "internalType": "address",
          "name": "to",
          "type": "address"
        },
        {
          "internalType": "uint256",
          "name": "tokenId",
          "type": "uint256"
        }
      ],
      "name": "safeTransferFrom",
      "outputs": [],
      "stateMutability": "nonpayable",
      "type": "function"
    },
    {
      "inputs": [
        {
          "internalType": "address",
          "name": "from",
          "type": "address"
        },
        {
          "internalType": "address",
          "name": "to",
          "type": "address"
        },
        {
          "internalType": "uint256",
          "name": "tokenId",
          "type": "uint256"
        },
        {
          "internalType": "bytes",
          "name": "data",
          "type": "bytes"
        }
      ],
      "name": "safeTransferFrom",
      "outputs": [],
      "stateMutability": "nonpayable",
      "type": "function"
    },
    {
      "inputs": [
        {
          "internalType": "address",
          "name": "operator",
          "type": "address"
        },
        {
          "internalType": "bool",
          "name": "approved",
          "type": "bool"
        }
      ],
      "name": "setApprovalForAll",
      "outputs": [],
      "stateMutability": "nonpayable",
      "type": "function"
    },
    {
      "inputs": [
        {
          "internalType": "uint256",
          "name": "tokenId",
          "type": "uint256"
        },
        {
          "internalType": "address",
          "name": "to",
          "type": "address"
        },
        {
          "internalType": "uint256",
          "name": "installmentAmount",
          "type": "uint256"
        },
        {
          "internalType": "uint256",
          "name": "frequency",
          "type": "uint256"
        },
        {
          "internalType": "uint256",
          "name": "nInstallments",
          "type": "uint256"
        }
      ],
      "name": "startLoan",
      "outputs": [],
      "stateMutability": "payable",
      "type": "function"
    },
    {
      "inputs": [
        {
          "internalType": "bytes4",
          "name": "interfaceId",
          "type": "bytes4"
        }
      ],
      "name": "supportsInterface",
      "outputs": [
        {
          "internalType": "bool",
          "name": "",
          "type": "bool"
        }
      ],
      "stateMutability": "view",
      "type": "function"
    },
    {
      "inputs": [],
      "name": "symbol",
      "outputs": [
        {
          "internalType": "string",
          "name": "",
          "type": "string"
        }
      ],
      "stateMutability": "view",
      "type": "function"
    },
    {
      "inputs": [
        {
          "internalType": "uint256",
          "name": "tokenId",
          "type": "uint256"
        }
      ],
      "name": "tokenURI",
      "outputs": [
        {
          "internalType": "string",
          "name": "",
          "type": "string"
        }
      ],
      "stateMutability": "view",
      "type": "function"
    },
    {
      "inputs": [
        {
          "internalType": "address",
          "name": "from",
          "type": "address"
        },
        {
          "internalType": "address",
          "name": "to",
          "type": "address"
        },
        {
          "internalType": "uint256",
          "name": "tokenId",
          "type": "uint256"
        }
      ],
      "name": "transferFrom",
      "outputs": [],
      "stateMutability": "nonpayable",
      "type": "function"
    },
    {
      "inputs": [
        {
          "internalType": "address",
          "name": "to",
          "type": "address"
        },
        {
          "internalType": "uint256",
          "name": "tokenId",
          "type": "uint256"
        }
      ],
      "name": "transferLoanedToken",
      "outputs": [],
      "stateMutability": "nonpayable",
      "type": "function"
    }
  ],
  "bytecode": "0x60806040523480156200001157600080fd5b50604051620043d8380380620043d88339818101604052810190620000379190620001fe565b8181818181600090816200004c9190620004ce565b5080600190816200005e9190620004ce565b50505050505050620005b5565b6000604051905090565b600080fd5b600080fd5b600080fd5b600080fd5b6000601f19601f8301169050919050565b7f4e487b7100000000000000000000000000000000000000000000000000000000600052604160045260246000fd5b620000d48262000089565b810181811067ffffffffffffffff82111715620000f657620000f56200009a565b5b80604052505050565b60006200010b6200006b565b9050620001198282620000c9565b919050565b600067ffffffffffffffff8211156200013c576200013b6200009a565b5b620001478262000089565b9050602081019050919050565b60005b838110156200017457808201518184015260208101905062000157565b60008484015250505050565b60006200019762000191846200011e565b620000ff565b905082815260208101848484011115620001b657620001b562000084565b5b620001c384828562000154565b509392505050565b600082601f830112620001e357620001e26200007f565b5b8151620001f584826020860162000180565b91505092915050565b6000806040838503121562000218576200021762000075565b5b600083015167ffffffffffffffff8111156200023957620002386200007a565b5b6200024785828601620001cb565b925050602083015167ffffffffffffffff8111156200026b576200026a6200007a565b5b6200027985828601620001cb565b9150509250929050565b600081519050919050565b7f4e487b7100000000000000000000000000000000000000000000000000000000600052602260045260246000fd5b60006002820490506001821680620002d657607f821691505b602082108103620002ec57620002eb6200028e565b5b50919050565b60008190508160005260206000209050919050565b60006020601f8301049050919050565b600082821b905092915050565b600060088302620003567fffffffffffffffffffffffffffffffffffffffffffffffffffffffffffffffff8262000317565b62000362868362000317565b95508019841693508086168417925050509392505050565b6000819050919050565b6000819050919050565b6000620003af620003a9620003a3846200037a565b62000384565b6200037a565b9050919050565b6000819050919050565b620003cb836200038e565b620003e3620003da82620003b6565b84845462000324565b825550505050565b600090565b620003fa620003eb565b62000407818484620003c0565b505050565b5b818110156200042f5762000423600082620003f0565b6001810190506200040d565b5050565b601f8211156200047e576200044881620002f2565b620004538462000307565b8101602085101562000463578190505b6200047b620004728562000307565b8301826200040c565b50505b505050565b600082821c905092915050565b6000620004a36000198460080262000483565b1980831691505092915050565b6000620004be838362000490565b9150826002028217905092915050565b620004d98262000283565b67ffffffffffffffff811115620004f557620004f46200009a565b5b620005018254620002bd565b6200050e82828562000433565b600060209050601f83116001811462000546576000841562000531578287015190505b6200053d8582620004b0565b865550620005ad565b601f1984166200055686620002f2565b60005b82811015620005805784890151825560018201915060208501945060208101905062000559565b86831015620005a057848901516200059c601f89168262000490565b8355505b6001600288020188555050505b505050505050565b613e1380620005c56000396000f3fe60806040526004361061011f5760003560e01c80636352211e116100a0578063a9cdc03011610064578063a9cdc030146103f3578063b88d4fde1461040f578063c87b56dd14610438578063e2f8a01714610475578063e985e9c5146104915761011f565b80636352211e146102fc57806370a08231146103395780637870860b1461037657806395d89b411461039f578063a22cb465146103ca5761011f565b806323b872dd116100e757806323b872dd1461022f57806340c10f191461025857806342842e0e146102815780634e218da5146102aa578063624cc280146102d35761011f565b806301ffc9a71461012457806306fdde0314610161578063081812fc1461018c578063095ea7b3146101c95780631ad06806146101f2575b600080fd5b34801561013057600080fd5b5061014b60048036038101906101469190612844565b6104ce565b604051610158919061288c565b60405180910390f35b34801561016d57600080fd5b50610176610548565b6040516101839190612937565b60405180910390f35b34801561019857600080fd5b506101b360048036038101906101ae919061298f565b6105da565b6040516101c091906129fd565b60405180910390f35b3480156101d557600080fd5b506101f060048036038101906101eb9190612a44565b610620565b005b3480156101fe57600080fd5b506102196004803603810190610214919061298f565b610677565b60405161022691906129fd565b60405180910390f35b34801561023b57600080fd5b5061025660048036038101906102519190612a84565b6106bd565b005b34801561026457600080fd5b5061027f600480360381019061027a9190612a44565b610716565b005b34801561028d57600080fd5b506102a860048036038101906102a39190612a84565b610724565b005b3480156102b657600080fd5b506102d160048036038101906102cc9190612a44565b61077d565b005b3480156102df57600080fd5b506102fa60048036038101906102f59190612a44565b610970565b005b34801561030857600080fd5b50610323600480360381019061031e919061298f565b610b1a565b60405161033091906129fd565b60405180910390f35b34801561034557600080fd5b50610360600480360381019061035b9190612ad7565b610ba0565b60405161036d9190612b13565b60405180910390f35b34801561038257600080fd5b5061039d6004803603810190610398919061298f565b610c57565b005b3480156103ab57600080fd5b506103b4610e93565b6040516103c19190612937565b60405180910390f35b3480156103d657600080fd5b506103f160048036038101906103ec9190612b5a565b610f25565b005b61040d60048036038101906104089190612b9a565b610f3b565b005b34801561041b57600080fd5b5061043660048036038101906104319190612d4a565b611300565b005b34801561044457600080fd5b5061045f600480360381019061045a919061298f565b611362565b60405161046c9190612937565b60405180910390f35b61048f600480360381019061048a919061298f565b6113ca565b005b34801561049d57600080fd5b506104b860048036038101906104b39190612dcd565b611572565b6040516104c5919061288c565b60405180910390f35b60007f67b4038f000000000000000000000000000000000000000000000000000000007bffffffffffffffffffffffffffffffffffffffffffffffffffffffff1916827bffffffffffffffffffffffffffffffffffffffffffffffffffffffff19161480610541575061054082611606565b5b9050919050565b60606000805461055790612e3c565b80601f016020809104026020016040519081016040528092919081815260200182805461058390612e3c565b80156105d05780601f106105a5576101008083540402835291602001916105d0565b820191906000526020600020905b8154815290600101906020018083116105b357829003601f168201915b5050505050905090565b60006105e5826116e8565b6004600083815260200190815260200160002060009054906101000a900473ffffffffffffffffffffffffffffffffffffffff169050919050565b61062981611733565b15610669576040517f08c379a000000000000000000000000000000000000000000000000000000000815260040161066090612edf565b60405180910390fd5b61067382826117a2565b5050565b6000610682826116e8565b6007600083815260200190815260200160002060009054906101000a900473ffffffffffffffffffffffffffffffffffffffff169050919050565b6106c681611733565b15610706576040517f08c379a00000000000000000000000000000000000000000000000000000000081526004016106fd90612f97565b60405180910390fd5b6107118383836118b9565b505050565b6107208282611919565b5050565b61072d81611733565b1561076d576040517f08c379a000000000000000000000000000000000000000000000000000000000815260040161076490612f97565b60405180910390fd5b610778838383611b36565b505050565b61078681611733565b156107c6576040517f08c379a00000000000000000000000000000000000000000000000000000000081526004016107bd90612edf565b60405180910390fd5b60006107d182610b1a565b90508073ffffffffffffffffffffffffffffffffffffffff168373ffffffffffffffffffffffffffffffffffffffff1603610841576040517f08c379a000000000000000000000000000000000000000000000000000000000815260040161083890613029565b60405180910390fd5b8073ffffffffffffffffffffffffffffffffffffffff16610860611b56565b73ffffffffffffffffffffffffffffffffffffffff16146108b6576040517f08c379a00000000000000000000000000000000000000000000000000000000081526004016108ad906130bb565b60405180910390fd5b826007600084815260200190815260200160002060006101000a81548173ffffffffffffffffffffffffffffffffffffffff021916908373ffffffffffffffffffffffffffffffffffffffff160217905550818373ffffffffffffffffffffffffffffffffffffffff1661092984611b5e565b73ffffffffffffffffffffffffffffffffffffffff167f92923139ac9e6fb93e879b89cd6d7cad993c7afadc8b3dc346aab70e433c873060405160405180910390a4505050565b60006006600083815260200190815260200160002060000160009054906101000a900473ffffffffffffffffffffffffffffffffffffffff1690508073ffffffffffffffffffffffffffffffffffffffff166109ca611b56565b73ffffffffffffffffffffffffffffffffffffffff161480610a2657506109f0826105da565b73ffffffffffffffffffffffffffffffffffffffff16610a0e611b56565b73ffffffffffffffffffffffffffffffffffffffff16145b610a65576040517f08c379a0000000000000000000000000000000000000000000000000000000008152600401610a5c9061314d565b60405180910390fd5b826006600084815260200190815260200160002060000160006101000a81548173ffffffffffffffffffffffffffffffffffffffff021916908373ffffffffffffffffffffffffffffffffffffffff160217905550818373ffffffffffffffffffffffffffffffffffffffff168273ffffffffffffffffffffffffffffffffffffffff167ffa2f086a560d0d5f43057f79a9682c82ebef7b9cd5d7f134b72d16ea0d2adf4d60405160405180910390a4505050565b600080610b2683611b5e565b9050600073ffffffffffffffffffffffffffffffffffffffff168173ffffffffffffffffffffffffffffffffffffffff1603610b97576040517f08c379a0000000000000000000000000000000000000000000000000000000008152600401610b8e906131b9565b60405180910390fd5b80915050919050565b60008073ffffffffffffffffffffffffffffffffffffffff168273ffffffffffffffffffffffffffffffffffffffff1603610c10576040517f08c379a0000000000000000000000000000000000000000000000000000000008152600401610c079061324b565b60405180910390fd5b600360008373ffffffffffffffffffffffffffffffffffffffff1673ffffffffffffffffffffffffffffffffffffffff168152602001908152602001600020549050919050565b6000600660008381526020019081526020016000209050600081600301548260020154610c84919061329a565b8260050154610c9391906132dc565b42119050816003015482600401541480610caa5750805b610ce9576040517f08c379a0000000000000000000000000000000000000000000000000000000008152600401610ce09061335c565b60405180910390fd5b8015610def5760006007600085815260200190815260200160002060009054906101000a900473ffffffffffffffffffffffffffffffffffffffff169050610d5e610d3385611b5e565b8460000160009054906101000a900473ffffffffffffffffffffffffffffffffffffffff1686611b9b565b806007600086815260200190815260200160002060006101000a81548173ffffffffffffffffffffffffffffffffffffffff021916908373ffffffffffffffffffffffffffffffffffffffff160217905550837fc2653d110e0ac6b0f8fa237368a0baa2ea04c45d185679e41704ee842ffffe1e6001604051610de1919061288c565b60405180910390a250610e29565b827fc2653d110e0ac6b0f8fa237368a0baa2ea04c45d185679e41704ee842ffffe1e6000604051610e20919061288c565b60405180910390a25b60066000848152602001908152602001600020600080820160006101000a81549073ffffffffffffffffffffffffffffffffffffffff0219169055600182016000905560028201600090556003820160009055600482016000905560058201600090555050505050565b606060018054610ea290612e3c565b80601f0160208091040260200160405190810160405280929190818152602001828054610ece90612e3c565b8015610f1b5780601f10610ef057610100808354040283529160200191610f1b565b820191906000526020600020905b815481529060010190602001808311610efe57829003601f168201915b5050505050905090565b610f37610f30611b56565b8383611e94565b5050565b60006007600087815260200190815260200160002060009054906101000a900473ffffffffffffffffffffffffffffffffffffffff1690506000610f7e87611b5e565b9050610f88611b56565b73ffffffffffffffffffffffffffffffffffffffff168273ffffffffffffffffffffffffffffffffffffffff161480610ff35750610fc4611b56565b73ffffffffffffffffffffffffffffffffffffffff168173ffffffffffffffffffffffffffffffffffffffff16145b611032576040517f08c379a0000000000000000000000000000000000000000000000000000000008152600401611029906133ee565b60405180910390fd5b61103b87611733565b1561107b576040517f08c379a00000000000000000000000000000000000000000000000000000000081526004016110729061345a565b60405180910390fd5b600073ffffffffffffffffffffffffffffffffffffffff168673ffffffffffffffffffffffffffffffffffffffff16036110ea576040517f08c379a00000000000000000000000000000000000000000000000000000000081526004016110e1906134ec565b60405180910390fd5b600060066000898152602001908152602001600020905061110c82888a611b9b565b82600760008a815260200190815260200160002060006101000a81548173ffffffffffffffffffffffffffffffffffffffff021916908373ffffffffffffffffffffffffffffffffffffffff160217905550818160000160006101000a81548173ffffffffffffffffffffffffffffffffffffffff021916908373ffffffffffffffffffffffffffffffffffffffff1602179055508581600101819055508481600201819055508381600401819055504281600501819055506111cd611b56565b73ffffffffffffffffffffffffffffffffffffffff168373ffffffffffffffffffffffffffffffffffffffff16036112985785341015611242576040517f08c379a00000000000000000000000000000000000000000000000000000000081526004016112399061357e565b60405180910390fd5b8173ffffffffffffffffffffffffffffffffffffffff166108fc349081150290604051600060405180830381858888f19350505050158015611288573d6000803e3d6000fd5b50600181600301819055506112a3565b600081600301819055505b8173ffffffffffffffffffffffffffffffffffffffff16887f9557a6ed416f5efdd607879ceef236becfc90ff001580dc620bae5dcbe4526788888886040516112ee9392919061359e565b60405180910390a35050505050505050565b61131161130b611b56565b83612000565b611350576040517f08c379a000000000000000000000000000000000000000000000000000000000815260040161134790613647565b60405180910390fd5b61135c84848484612095565b50505050565b606061136d826116e8565b60006113776120f1565b9050600081511161139757604051806020016040528060008152506113c2565b806113a184612108565b6040516020016113b29291906136a3565b6040516020818303038152906040525b915050919050565b6113d381611733565b611412576040517f08c379a000000000000000000000000000000000000000000000000000000000815260040161140990613713565b60405180910390fd5b60006006600083815260200190815260200160002090508060040154816003015410611473576040517f08c379a000000000000000000000000000000000000000000000000000000000815260040161146a9061377f565b60405180910390fd5b80600101543410156114ba576040517f08c379a00000000000000000000000000000000000000000000000000000000081526004016114b190613811565b60405180910390fd5b8060000160009054906101000a900473ffffffffffffffffffffffffffffffffffffffff1673ffffffffffffffffffffffffffffffffffffffff166108fc349081150290604051600060405180830381858888f19350505050158015611524573d6000803e3d6000fd5b50600181600301600082825461153a91906132dc565b92505081905550817ff21eb620eaa4584714e9fb24a440fcaa159c5748e81111f60741edca04d9783560405160405180910390a25050565b6000600560008473ffffffffffffffffffffffffffffffffffffffff1673ffffffffffffffffffffffffffffffffffffffff16815260200190815260200160002060008373ffffffffffffffffffffffffffffffffffffffff1673ffffffffffffffffffffffffffffffffffffffff16815260200190815260200160002060009054906101000a900460ff16905092915050565b60007f80ac58cd000000000000000000000000000000000000000000000000000000007bffffffffffffffffffffffffffffffffffffffffffffffffffffffff1916827bffffffffffffffffffffffffffffffffffffffffffffffffffffffff191614806116d157507f5b5e139f000000000000000000000000000000000000000000000000000000007bffffffffffffffffffffffffffffffffffffffffffffffffffffffff1916827bffffffffffffffffffffffffffffffffffffffffffffffffffffffff1916145b806116e157506116e0826121d6565b5b9050919050565b6116f181612240565b611730576040517f08c379a0000000000000000000000000000000000000000000000000000000008152600401611727906131b9565b60405180910390fd5b50565b60008073ffffffffffffffffffffffffffffffffffffffff166006600084815260200190815260200160002060000160009054906101000a900473ffffffffffffffffffffffffffffffffffffffff1673ffffffffffffffffffffffffffffffffffffffff1614159050919050565b60006117ad82610b1a565b90508073ffffffffffffffffffffffffffffffffffffffff168373ffffffffffffffffffffffffffffffffffffffff160361181d576040517f08c379a0000000000000000000000000000000000000000000000000000000008152600401611814906138a3565b60405180910390fd5b8073ffffffffffffffffffffffffffffffffffffffff1661183c611b56565b73ffffffffffffffffffffffffffffffffffffffff16148061186b575061186a81611865611b56565b611572565b5b6118aa576040517f08c379a00000000000000000000000000000000000000000000000000000000081526004016118a190613935565b60405180910390fd5b6118b48383612281565b505050565b6118ca6118c4611b56565b82612000565b611909576040517f08c379a000000000000000000000000000000000000000000000000000000000815260040161190090613647565b60405180910390fd5b611914838383611b9b565b505050565b600073ffffffffffffffffffffffffffffffffffffffff168273ffffffffffffffffffffffffffffffffffffffff1603611988576040517f08c379a000000000000000000000000000000000000000000000000000000000815260040161197f906139a1565b60405180910390fd5b61199181612240565b156119d1576040517f08c379a00000000000000000000000000000000000000000000000000000000081526004016119c890613a0d565b60405180910390fd5b6119df60008383600161233a565b6119e881612240565b15611a28576040517f08c379a0000000000000000000000000000000000000000000000000000000008152600401611a1f90613a0d565b60405180910390fd5b6001600360008473ffffffffffffffffffffffffffffffffffffffff1673ffffffffffffffffffffffffffffffffffffffff16815260200190815260200160002060008282540192505081905550816002600083815260200190815260200160002060006101000a81548173ffffffffffffffffffffffffffffffffffffffff021916908373ffffffffffffffffffffffffffffffffffffffff160217905550808273ffffffffffffffffffffffffffffffffffffffff16600073ffffffffffffffffffffffffffffffffffffffff167fddf252ad1be2c89b69c2b068fc378daa952ba7f163c4a11628f55a4df523b3ef60405160405180910390a4611b326000838360016123af565b5050565b611b5183838360405180602001604052806000815250611300565b505050565b600033905090565b60006002600083815260200190815260200160002060009054906101000a900473ffffffffffffffffffffffffffffffffffffffff169050919050565b8273ffffffffffffffffffffffffffffffffffffffff16611bbb82610b1a565b73ffffffffffffffffffffffffffffffffffffffff1614611c11576040517f08c379a0000000000000000000000000000000000000000000000000000000008152600401611c0890613a9f565b60405180910390fd5b600073ffffffffffffffffffffffffffffffffffffffff168273ffffffffffffffffffffffffffffffffffffffff1603611c80576040517f08c379a0000000000000000000000000000000000000000000000000000000008152600401611c7790613b31565b60405180910390fd5b611c8d838383600161233a565b8273ffffffffffffffffffffffffffffffffffffffff16611cad82610b1a565b73ffffffffffffffffffffffffffffffffffffffff1614611d03576040517f08c379a0000000000000000000000000000000000000000000000000000000008152600401611cfa90613a9f565b60405180910390fd5b6004600082815260200190815260200160002060006101000a81549073ffffffffffffffffffffffffffffffffffffffff02191690556001600360008573ffffffffffffffffffffffffffffffffffffffff1673ffffffffffffffffffffffffffffffffffffffff168152602001908152602001600020600082825403925050819055506001600360008473ffffffffffffffffffffffffffffffffffffffff1673ffffffffffffffffffffffffffffffffffffffff16815260200190815260200160002060008282540192505081905550816002600083815260200190815260200160002060006101000a81548173ffffffffffffffffffffffffffffffffffffffff021916908373ffffffffffffffffffffffffffffffffffffffff160217905550808273ffffffffffffffffffffffffffffffffffffffff168473ffffffffffffffffffffffffffffffffffffffff167fddf252ad1be2c89b69c2b068fc378daa952ba7f163c4a11628f55a4df523b3ef60405160405180910390a4611e8f83838360016123af565b505050565b8173ffffffffffffffffffffffffffffffffffffffff168373ffffffffffffffffffffffffffffffffffffffff1603611f02576040517f08c379a0000000000000000000000000000000000000000000000000000000008152600401611ef990613b9d565b60405180910390fd5b80600560008573ffffffffffffffffffffffffffffffffffffffff1673ffffffffffffffffffffffffffffffffffffffff16815260200190815260200160002060008473ffffffffffffffffffffffffffffffffffffffff1673ffffffffffffffffffffffffffffffffffffffff16815260200190815260200160002060006101000a81548160ff0219169083151502179055508173ffffffffffffffffffffffffffffffffffffffff168373ffffffffffffffffffffffffffffffffffffffff167f17307eab39ab6107e8899845ad3d59bd9653f200f220920489ca2b5937696c3183604051611ff3919061288c565b60405180910390a3505050565b60008061200c83610b1a565b90508073ffffffffffffffffffffffffffffffffffffffff168473ffffffffffffffffffffffffffffffffffffffff16148061204e575061204d8185611572565b5b8061208c57508373ffffffffffffffffffffffffffffffffffffffff16612074846105da565b73ffffffffffffffffffffffffffffffffffffffff16145b91505092915050565b6120a0848484611b9b565b6120ac848484846123b5565b6120eb576040517f08c379a00000000000000000000000000000000000000000000000000000000081526004016120e290613c2f565b60405180910390fd5b50505050565b606060405180602001604052806000815250905090565b6060600060016121178461253c565b01905060008167ffffffffffffffff81111561213657612135612c1f565b5b6040519080825280601f01601f1916602001820160405280156121685781602001600182028036833780820191505090505b509050600082602001820190505b6001156121cb578080600190039150507f3031323334353637383961626364656600000000000000000000000000000000600a86061a8153600a85816121bf576121be613c4f565b5b04945060008503612176575b819350505050919050565b60007f01ffc9a7000000000000000000000000000000000000000000000000000000007bffffffffffffffffffffffffffffffffffffffffffffffffffffffff1916827bffffffffffffffffffffffffffffffffffffffffffffffffffffffff1916149050919050565b60008073ffffffffffffffffffffffffffffffffffffffff1661226283611b5e565b73ffffffffffffffffffffffffffffffffffffffff1614159050919050565b816004600083815260200190815260200160002060006101000a81548173ffffffffffffffffffffffffffffffffffffffff021916908373ffffffffffffffffffffffffffffffffffffffff160217905550808273ffffffffffffffffffffffffffffffffffffffff166122f483610b1a565b73ffffffffffffffffffffffffffffffffffffffff167f8c5be1e5ebec7d5bd14f71427d1e84f3dd0314c0f7b2291e5b200ac8c7c3b92560405160405180910390a45050565b6123468484848461268f565b60008290505b818361235891906132dc565b8110156123a8576007600082815260200190815260200160002060006101000a81549073ffffffffffffffffffffffffffffffffffffffff021916905580806123a090613c7e565b91505061234c565b5050505050565b50505050565b60006123d68473ffffffffffffffffffffffffffffffffffffffff166127b5565b1561252f578373ffffffffffffffffffffffffffffffffffffffff1663150b7a026123ff611b56565b8786866040518563ffffffff1660e01b81526004016124219493929190613d1b565b6020604051808303816000875af192505050801561245d57506040513d601f19601f8201168201806040525081019061245a9190613d7c565b60015b6124df573d806000811461248d576040519150601f19603f3d011682016040523d82523d6000602084013e612492565b606091505b5060008151036124d7576040517f08c379a00000000000000000000000000000000000000000000000000000000081526004016124ce90613c2f565b60405180910390fd5b805181602001fd5b63150b7a0260e01b7bffffffffffffffffffffffffffffffffffffffffffffffffffffffff1916817bffffffffffffffffffffffffffffffffffffffffffffffffffffffff191614915050612534565b600190505b949350505050565b600080600090507a184f03e93ff9f4daa797ed6e38ed64bf6a1f010000000000000000831061259a577a184f03e93ff9f4daa797ed6e38ed64bf6a1f01000000000000000083816125905761258f613c4f565b5b0492506040810190505b6d04ee2d6d415b85acef810000000083106125d7576d04ee2d6d415b85acef810000000083816125cd576125cc613c4f565b5b0492506020810190505b662386f26fc10000831061260657662386f26fc1000083816125fc576125fb613c4f565b5b0492506010810190505b6305f5e100831061262f576305f5e100838161262557612624613c4f565b5b0492506008810190505b612710831061265457612710838161264a57612649613c4f565b5b0492506004810190505b60648310612677576064838161266d5761266c613c4f565b5b0492506002810190505b600a8310612686576001810190505b80915050919050565b60018111156127af57600073ffffffffffffffffffffffffffffffffffffffff168473ffffffffffffffffffffffffffffffffffffffff16146127235780600360008673ffffffffffffffffffffffffffffffffffffffff1673ffffffffffffffffffffffffffffffffffffffff168152602001908152602001600020600082825461271b9190613da9565b925050819055505b600073ffffffffffffffffffffffffffffffffffffffff168373ffffffffffffffffffffffffffffffffffffffff16146127ae5780600360008573ffffffffffffffffffffffffffffffffffffffff1673ffffffffffffffffffffffffffffffffffffffff16815260200190815260200160002060008282546127a691906132dc565b925050819055505b5b50505050565b6000808273ffffffffffffffffffffffffffffffffffffffff163b119050919050565b6000604051905090565b600080fd5b600080fd5b60007fffffffff0000000000000000000000000000000000000000000000000000000082169050919050565b612821816127ec565b811461282c57600080fd5b50565b60008135905061283e81612818565b92915050565b60006020828403121561285a576128596127e2565b5b60006128688482850161282f565b91505092915050565b60008115159050919050565b61288681612871565b82525050565b60006020820190506128a1600083018461287d565b92915050565b600081519050919050565b600082825260208201905092915050565b60005b838110156128e15780820151818401526020810190506128c6565b60008484015250505050565b6000601f19601f8301169050919050565b6000612909826128a7565b61291381856128b2565b93506129238185602086016128c3565b61292c816128ed565b840191505092915050565b6000602082019050818103600083015261295181846128fe565b905092915050565b6000819050919050565b61296c81612959565b811461297757600080fd5b50565b60008135905061298981612963565b92915050565b6000602082840312156129a5576129a46127e2565b5b60006129b38482850161297a565b91505092915050565b600073ffffffffffffffffffffffffffffffffffffffff82169050919050565b60006129e7826129bc565b9050919050565b6129f7816129dc565b82525050565b6000602082019050612a1260008301846129ee565b92915050565b612a21816129dc565b8114612a2c57600080fd5b50565b600081359050612a3e81612a18565b92915050565b60008060408385031215612a5b57612a5a6127e2565b5b6000612a6985828601612a2f565b9250506020612a7a8582860161297a565b9150509250929050565b600080600060608486031215612a9d57612a9c6127e2565b5b6000612aab86828701612a2f565b9350506020612abc86828701612a2f565b9250506040612acd8682870161297a565b9150509250925092565b600060208284031215612aed57612aec6127e2565b5b6000612afb84828501612a2f565b91505092915050565b612b0d81612959565b82525050565b6000602082019050612b286000830184612b04565b92915050565b612b3781612871565b8114612b4257600080fd5b50565b600081359050612b5481612b2e565b92915050565b60008060408385031215612b7157612b706127e2565b5b6000612b7f85828601612a2f565b9250506020612b9085828601612b45565b9150509250929050565b600080600080600060a08688031215612bb657612bb56127e2565b5b6000612bc48882890161297a565b9550506020612bd588828901612a2f565b9450506040612be68882890161297a565b9350506060612bf78882890161297a565b9250506080612c088882890161297a565b9150509295509295909350565b600080fd5b600080fd5b7f4e487b7100000000000000000000000000000000000000000000000000000000600052604160045260246000fd5b612c57826128ed565b810181811067ffffffffffffffff82111715612c7657612c75612c1f565b5b80604052505050565b6000612c896127d8565b9050612c958282612c4e565b919050565b600067ffffffffffffffff821115612cb557612cb4612c1f565b5b612cbe826128ed565b9050602081019050919050565b82818337600083830152505050565b6000612ced612ce884612c9a565b612c7f565b905082815260208101848484011115612d0957612d08612c1a565b5b612d14848285612ccb565b509392505050565b600082601f830112612d3157612d30612c15565b5b8135612d41848260208601612cda565b91505092915050565b60008060008060808587031215612d6457612d636127e2565b5b6000612d7287828801612a2f565b9450506020612d8387828801612a2f565b9350506040612d948782880161297a565b925050606085013567ffffffffffffffff811115612db557612db46127e7565b5b612dc187828801612d1c565b91505092959194509250565b60008060408385031215612de457612de36127e2565b5b6000612df285828601612a2f565b9250506020612e0385828601612a2f565b9150509250929050565b7f4e487b7100000000000000000000000000000000000000000000000000000000600052602260045260246000fd5b60006002820490506001821680612e5457607f821691505b602082108103612e6757612e66612e0d565b5b50919050565b7f455243583a2043616e6e6f7420617070726f7665206c6f616e656420746f6b6560008201527f6e00000000000000000000000000000000000000000000000000000000000000602082015250565b6000612ec96021836128b2565b9150612ed482612e6d565b604082019050919050565b60006020820190508181036000830152612ef881612ebc565b9050919050565b7f455243583a20757365207472616e736665724c6f616e6564546f6b656e20667560008201527f6e6374696f6e20746f207472616e736665722061206c6f616e656420746f6b6560208201527f6e00000000000000000000000000000000000000000000000000000000000000604082015250565b6000612f816041836128b2565b9150612f8c82612eff565b606082019050919050565b60006020820190508181036000830152612fb081612f74565b9050919050565b7f455243583a2052656e74616c20617070726f76616c20746f2063757272656e7460008201527f206f776e65720000000000000000000000000000000000000000000000000000602082015250565b60006130136026836128b2565b915061301e82612fb7565b604082019050919050565b6000602082019050818103600083015261304281613006565b9050919050565b7f455243583a20617070726f76652063616c6c6572206973206e6f7420746f6b6560008201527f6e206f776e657200000000000000000000000000000000000000000000000000602082015250565b60006130a56027836128b2565b91506130b082613049565b604082019050919050565b600060208201905081810360008301526130d481613098565b9050919050565b7f455243583a206f6e6c79206c6f616e6572206f7220617070726f76656420616460008201527f64726573732063616e207472616e7366657220647572696e67206c6f616e0000602082015250565b6000613137603e836128b2565b9150613142826130db565b604082019050919050565b600060208201905081810360008301526131668161312a565b9050919050565b7f4552433732313a20696e76616c696420746f6b656e2049440000000000000000600082015250565b60006131a36018836128b2565b91506131ae8261316d565b602082019050919050565b600060208201905081810360008301526131d281613196565b9050919050565b7f4552433732313a2061646472657373207a65726f206973206e6f74206120766160008201527f6c6964206f776e65720000000000000000000000000000000000000000000000602082015250565b60006132356029836128b2565b9150613240826131d9565b604082019050919050565b6000602082019050818103600083015261326481613228565b9050919050565b7f4e487b7100000000000000000000000000000000000000000000000000000000600052601160045260246000fd5b60006132a582612959565b91506132b083612959565b92508282026132be81612959565b915082820484148315176132d5576132d461326b565b5b5092915050565b60006132e782612959565b91506132f283612959565b925082820190508082111561330a5761330961326b565b5b92915050565b7f455243583a206c6f616e206e6f7420796574207465726d696e61746564000000600082015250565b6000613346601d836128b2565b915061335182613310565b602082019050919050565b6000602082019050818103600083015261337581613339565b9050919050565b7f455243583a2043616e2062652063616c6c6564206f6e6c79206279206f776e6560008201527f72206f72206164647265737320617070726f76656420666f72206c6f616e0000602082015250565b60006133d8603e836128b2565b91506133e38261337c565b604082019050919050565b60006020820190508181036000830152613407816133cb565b9050919050565b7f455243583a2043616e6e6f74207375626c6f616e000000000000000000000000600082015250565b60006134446014836128b2565b915061344f8261340e565b602082019050919050565b6000602082019050818103600083015261347381613437565b9050919050565b7f455243583a2063616e6e6f74206c6f616e20746f20746865207a65726f20616460008201527f6472657373000000000000000000000000000000000000000000000000000000602082015250565b60006134d66025836128b2565b91506134e18261347a565b604082019050919050565b60006020820190508181036000830152613505816134c9565b9050919050565b7f455243583a20466972737420696e7374616c6c6d656e74206d7573742062652060008201527f7061696420746f20737461727420746865206c6f616e00000000000000000000602082015250565b60006135686036836128b2565b91506135738261350c565b604082019050919050565b600060208201905081810360008301526135978161355b565b9050919050565b60006060820190506135b36000830186612b04565b6135c06020830185612b04565b6135cd6040830184612b04565b949350505050565b7f4552433732313a2063616c6c6572206973206e6f7420746f6b656e206f776e6560008201527f72206f7220617070726f76656400000000000000000000000000000000000000602082015250565b6000613631602d836128b2565b915061363c826135d5565b604082019050919050565b6000602082019050818103600083015261366081613624565b9050919050565b600081905092915050565b600061367d826128a7565b6136878185613667565b93506136978185602086016128c3565b80840191505092915050565b60006136af8285613672565b91506136bb8284613672565b91508190509392505050565b7f455243583a20546f6b656e206973206e6f74206c6f616e656400000000000000600082015250565b60006136fd6019836128b2565b9150613708826136c7565b602082019050919050565b6000602082019050818103600083015261372c816136f0565b9050919050565b7f455243583a20416c6c20696e7374616c6c6d656e747320706169642079657400600082015250565b6000613769601f836128b2565b915061377482613733565b602082019050919050565b600060208201905081810360008301526137988161375c565b9050919050565b7f455243583a2053656e742076616c7565206d757374206265206772656174657260008201527f206f7220657175616c20746f20696e7374616c6c6d656e742076616c75650000602082015250565b60006137fb603e836128b2565b91506138068261379f565b604082019050919050565b6000602082019050818103600083015261382a816137ee565b9050919050565b7f4552433732313a20617070726f76616c20746f2063757272656e74206f776e6560008201527f7200000000000000000000000000000000000000000000000000000000000000602082015250565b600061388d6021836128b2565b915061389882613831565b604082019050919050565b600060208201905081810360008301526138bc81613880565b9050919050565b7f4552433732313a20617070726f76652063616c6c6572206973206e6f7420746f60008201527f6b656e206f776e6572206f7220617070726f76656420666f7220616c6c000000602082015250565b600061391f603d836128b2565b915061392a826138c3565b604082019050919050565b6000602082019050818103600083015261394e81613912565b9050919050565b7f4552433732313a206d696e7420746f20746865207a65726f2061646472657373600082015250565b600061398b6020836128b2565b915061399682613955565b602082019050919050565b600060208201905081810360008301526139ba8161397e565b9050919050565b7f4552433732313a20746f6b656e20616c7265616479206d696e74656400000000600082015250565b60006139f7601c836128b2565b9150613a02826139c1565b602082019050919050565b60006020820190508181036000830152613a26816139ea565b9050919050565b7f4552433732313a207472616e736665722066726f6d20696e636f72726563742060008201527f6f776e6572000000000000000000000000000000000000000000000000000000602082015250565b6000613a896025836128b2565b9150613a9482613a2d565b604082019050919050565b60006020820190508181036000830152613ab881613a7c565b9050919050565b7f4552433732313a207472616e7366657220746f20746865207a65726f2061646460008201527f7265737300000000000000000000000000000000000000000000000000000000602082015250565b6000613b1b6024836128b2565b9150613b2682613abf565b604082019050919050565b60006020820190508181036000830152613b4a81613b0e565b9050919050565b7f4552433732313a20617070726f766520746f2063616c6c657200000000000000600082015250565b6000613b876019836128b2565b9150613b9282613b51565b602082019050919050565b60006020820190508181036000830152613bb681613b7a565b9050919050565b7f4552433732313a207472616e7366657220746f206e6f6e20455243373231526560008201527f63656976657220696d706c656d656e7465720000000000000000000000000000602082015250565b6000613c196032836128b2565b9150613c2482613bbd565b604082019050919050565b60006020820190508181036000830152613c4881613c0c565b9050919050565b7f4e487b7100000000000000000000000000000000000000000000000000000000600052601260045260246000fd5b6000613c8982612959565b91507fffffffffffffffffffffffffffffffffffffffffffffffffffffffffffffffff8203613cbb57613cba61326b565b5b600182019050919050565b600081519050919050565b600082825260208201905092915050565b6000613ced82613cc6565b613cf78185613cd1565b9350613d078185602086016128c3565b613d10816128ed565b840191505092915050565b6000608082019050613d3060008301876129ee565b613d3d60208301866129ee565b613d4a6040830185612b04565b8181036060830152613d5c8184613ce2565b905095945050505050565b600081519050613d7681612818565b92915050565b600060208284031215613d9257613d916127e2565b5b6000613da084828501613d67565b91505092915050565b6000613db482612959565b9150613dbf83612959565b9250828203905081811115613dd757613dd661326b565b5b9291505056fea26469706673582212206b5a859a5935547b4f126f859f4e45fc012f40a5f05bfb1d7d655c7589c57a7c64736f6c63430008110033",
  "linkReferences": {},
  "deployedLinkReferences": {}
}