{
  "_format": "hh-sol-artifact-1",
  "contractName": "ERCX_loan",
  "sourceName": "contracts/ERCX_loan.sol",
  "abi": [
    {
      "inputs": [
        {
          "internalType": "string",
          "name": "name_",
          "type": "string"
        },
        {
          "internalType": "string",
          "name": "symbol_",
          "type": "string"
        }
      ],
      "stateMutability": "nonpayable",
      "type": "constructor"
    },
    {
      "anonymous": false,
      "inputs": [
        {
          "indexed": true,
          "internalType": "address",
          "name": "owner",
          "type": "address"
        },
        {
          "indexed": true,
          "internalType": "address",
          "name": "approved",
          "type": "address"
        },
        {
          "indexed": true,
          "internalType": "uint256",
          "name": "tokenId",
          "type": "uint256"
        }
      ],
      "name": "Approval",
      "type": "event"
    },
    {
      "anonymous": false,
      "inputs": [
        {
          "indexed": true,
          "internalType": "address",
          "name": "owner",
          "type": "address"
        },
        {
          "indexed": true,
          "internalType": "address",
          "name": "operator",
          "type": "address"
        },
        {
          "indexed": false,
          "internalType": "bool",
          "name": "approved",
          "type": "bool"
        }
      ],
      "name": "ApprovalForAll",
      "type": "event"
    },
    {
      "anonymous": false,
      "inputs": [
        {
          "indexed": true,
          "internalType": "uint256",
          "name": "tokenId",
          "type": "uint256"
        }
      ],
      "name": "InstallmentPayment",
      "type": "event"
    },
    {
      "anonymous": false,
      "inputs": [
        {
          "indexed": true,
          "internalType": "address",
          "name": "owner",
          "type": "address"
        },
        {
          "indexed": true,
          "internalType": "address",
          "name": "approved",
          "type": "address"
        },
        {
          "indexed": true,
          "internalType": "uint256",
          "name": "tokenId",
          "type": "uint256"
        }
      ],
      "name": "LoanApproval",
      "type": "event"
    },
    {
      "anonymous": false,
      "inputs": [
        {
          "indexed": true,
          "internalType": "uint256",
          "name": "tokenId",
          "type": "uint256"
        },
        {
          "indexed": false,
          "internalType": "bool",
          "name": "expired",
          "type": "bool"
        }
      ],
      "name": "LoanTermination",
      "type": "event"
    },
    {
      "anonymous": false,
      "inputs": [
        {
          "indexed": true,
          "internalType": "uint256",
          "name": "tokenId",
          "type": "uint256"
        },
        {
          "indexed": true,
          "internalType": "address",
          "name": "exOwner",
          "type": "address"
        },
        {
          "indexed": false,
          "internalType": "uint256",
          "name": "installmentAmount",
          "type": "uint256"
        },
        {
          "indexed": false,
          "internalType": "uint256",
          "name": "frequency",
          "type": "uint256"
        },
        {
          "indexed": false,
          "internalType": "uint256",
          "name": "nInstallments",
          "type": "uint256"
        }
      ],
      "name": "LoanUpdate",
      "type": "event"
    },
    {
      "anonymous": false,
      "inputs": [
        {
          "indexed": true,
          "internalType": "address",
          "name": "from",
          "type": "address"
        },
        {
          "indexed": true,
          "internalType": "address",
          "name": "to",
          "type": "address"
        },
        {
          "indexed": true,
          "internalType": "uint256",
          "name": "tokenId",
          "type": "uint256"
        }
      ],
      "name": "LoanedTokenTransfer",
      "type": "event"
    },
    {
      "anonymous": false,
      "inputs": [
        {
          "indexed": true,
          "internalType": "address",
          "name": "from",
          "type": "address"
        },
        {
          "indexed": true,
          "internalType": "address",
          "name": "to",
          "type": "address"
        },
        {
          "indexed": true,
          "internalType": "uint256",
          "name": "tokenId",
          "type": "uint256"
        }
      ],
      "name": "Transfer",
      "type": "event"
    },
    {
      "inputs": [
        {
          "internalType": "address",
          "name": "to",
          "type": "address"
        },
        {
          "internalType": "uint256",
          "name": "tokenId",
          "type": "uint256"
        }
      ],
      "name": "approve",
      "outputs": [],
      "stateMutability": "nonpayable",
      "type": "function"
    },
    {
      "inputs": [
        {
          "internalType": "address",
          "name": "to",
          "type": "address"
        },
        {
          "internalType": "uint256",
          "name": "tokenId",
          "type": "uint256"
        }
      ],
      "name": "approveLoanControl",
      "outputs": [],
      "stateMutability": "nonpayable",
      "type": "function"
    },
    {
      "inputs": [
        {
          "internalType": "address",
          "name": "owner",
          "type": "address"
        }
      ],
      "name": "balanceOf",
      "outputs": [
        {
          "internalType": "uint256",
          "name": "",
          "type": "uint256"
        }
      ],
      "stateMutability": "view",
      "type": "function"
    },
    {
      "inputs": [
        {
          "internalType": "uint256",
          "name": "tokenId",
          "type": "uint256"
        }
      ],
      "name": "endLoan",
      "outputs": [],
      "stateMutability": "nonpayable",
      "type": "function"
    },
    {
      "inputs": [
        {
          "internalType": "uint256",
          "name": "tokenId",
          "type": "uint256"
        }
      ],
      "name": "getApproved",
      "outputs": [
        {
          "internalType": "address",
          "name": "",
          "type": "address"
        }
      ],
      "stateMutability": "view",
      "type": "function"
    },
    {
      "inputs": [
        {
          "internalType": "uint256",
          "name": "tokenId",
          "type": "uint256"
        }
      ],
      "name": "getLoanApproved",
      "outputs": [
        {
          "internalType": "address",
          "name": "approved",
          "type": "address"
        }
      ],
      "stateMutability": "view",
      "type": "function"
    },
    {
      "inputs": [
        {
          "internalType": "address",
          "name": "owner",
          "type": "address"
        },
        {
          "internalType": "address",
          "name": "operator",
          "type": "address"
        }
      ],
      "name": "isApprovedForAll",
      "outputs": [
        {
          "internalType": "bool",
          "name": "",
          "type": "bool"
        }
      ],
      "stateMutability": "view",
      "type": "function"
    },
    {
      "inputs": [],
      "name": "name",
      "outputs": [
        {
          "internalType": "string",
          "name": "",
          "type": "string"
        }
      ],
      "stateMutability": "view",
      "type": "function"
    },
    {
      "inputs": [
        {
          "internalType": "uint256",
          "name": "tokenId",
          "type": "uint256"
        }
      ],
      "name": "ownerOf",
      "outputs": [
        {
          "internalType": "address",
          "name": "",
          "type": "address"
        }
      ],
      "stateMutability": "view",
      "type": "function"
    },
    {
      "inputs": [
        {
          "internalType": "uint256",
          "name": "tokenId",
          "type": "uint256"
        }
      ],
      "name": "payInstallment",
      "outputs": [],
      "stateMutability": "payable",
      "type": "function"
    },
    {
      "inputs": [
        {
          "internalType": "address",
          "name": "from",
          "type": "address"
        },
        {
          "internalType": "address",
          "name": "to",
          "type": "address"
        },
        {
          "internalType": "uint256",
          "name": "tokenId",
          "type": "uint256"
        }
      ],
      "name": "safeTransferFrom",
      "outputs": [],
      "stateMutability": "nonpayable",
      "type": "function"
    },
    {
      "inputs": [
        {
          "internalType": "address",
          "name": "from",
          "type": "address"
        },
        {
          "internalType": "address",
          "name": "to",
          "type": "address"
        },
        {
          "internalType": "uint256",
          "name": "tokenId",
          "type": "uint256"
        },
        {
          "internalType": "bytes",
          "name": "data",
          "type": "bytes"
        }
      ],
      "name": "safeTransferFrom",
      "outputs": [],
      "stateMutability": "nonpayable",
      "type": "function"
    },
    {
      "inputs": [
        {
          "internalType": "address",
          "name": "operator",
          "type": "address"
        },
        {
          "internalType": "bool",
          "name": "approved",
          "type": "bool"
        }
      ],
      "name": "setApprovalForAll",
      "outputs": [],
      "stateMutability": "nonpayable",
      "type": "function"
    },
    {
      "inputs": [
        {
          "internalType": "uint256",
          "name": "tokenId",
          "type": "uint256"
        },
        {
          "internalType": "address",
          "name": "to",
          "type": "address"
        },
        {
          "internalType": "uint256",
          "name": "installmentAmount",
          "type": "uint256"
        },
        {
          "internalType": "uint256",
          "name": "frequency",
          "type": "uint256"
        },
        {
          "internalType": "uint256",
          "name": "nInstallments",
          "type": "uint256"
        }
      ],
      "name": "startLoan",
      "outputs": [],
      "stateMutability": "payable",
      "type": "function"
    },
    {
      "inputs": [
        {
          "internalType": "bytes4",
          "name": "interfaceId",
          "type": "bytes4"
        }
      ],
      "name": "supportsInterface",
      "outputs": [
        {
          "internalType": "bool",
          "name": "",
          "type": "bool"
        }
      ],
      "stateMutability": "view",
      "type": "function"
    },
    {
      "inputs": [],
      "name": "symbol",
      "outputs": [
        {
          "internalType": "string",
          "name": "",
          "type": "string"
        }
      ],
      "stateMutability": "view",
      "type": "function"
    },
    {
      "inputs": [
        {
          "internalType": "uint256",
          "name": "tokenId",
          "type": "uint256"
        }
      ],
      "name": "tokenURI",
      "outputs": [
        {
          "internalType": "string",
          "name": "",
          "type": "string"
        }
      ],
      "stateMutability": "view",
      "type": "function"
    },
    {
      "inputs": [
        {
          "internalType": "address",
          "name": "from",
          "type": "address"
        },
        {
          "internalType": "address",
          "name": "to",
          "type": "address"
        },
        {
          "internalType": "uint256",
          "name": "tokenId",
          "type": "uint256"
        }
      ],
      "name": "transferFrom",
      "outputs": [],
      "stateMutability": "nonpayable",
      "type": "function"
    },
    {
      "inputs": [
        {
          "internalType": "address",
          "name": "to",
          "type": "address"
        },
        {
          "internalType": "uint256",
          "name": "tokenId",
          "type": "uint256"
        }
      ],
      "name": "transferLoanedToken",
      "outputs": [],
      "stateMutability": "nonpayable",
      "type": "function"
    }
  ],
  "bytecode": "0x60806040523480156200001157600080fd5b506040516200409d3803806200409d8339818101604052810190620000379190620001fa565b818181600090816200004a9190620004ca565b5080600190816200005c9190620004ca565b5050505050620005b1565b6000604051905090565b600080fd5b600080fd5b600080fd5b600080fd5b6000601f19601f8301169050919050565b7f4e487b7100000000000000000000000000000000000000000000000000000000600052604160045260246000fd5b620000d08262000085565b810181811067ffffffffffffffff82111715620000f257620000f162000096565b5b80604052505050565b60006200010762000067565b9050620001158282620000c5565b919050565b600067ffffffffffffffff82111562000138576200013762000096565b5b620001438262000085565b9050602081019050919050565b60005b838110156200017057808201518184015260208101905062000153565b60008484015250505050565b6000620001936200018d846200011a565b620000fb565b905082815260208101848484011115620001b257620001b162000080565b5b620001bf84828562000150565b509392505050565b600082601f830112620001df57620001de6200007b565b5b8151620001f18482602086016200017c565b91505092915050565b6000806040838503121562000214576200021362000071565b5b600083015167ffffffffffffffff81111562000235576200023462000076565b5b6200024385828601620001c7565b925050602083015167ffffffffffffffff81111562000267576200026662000076565b5b6200027585828601620001c7565b9150509250929050565b600081519050919050565b7f4e487b7100000000000000000000000000000000000000000000000000000000600052602260045260246000fd5b60006002820490506001821680620002d257607f821691505b602082108103620002e857620002e76200028a565b5b50919050565b60008190508160005260206000209050919050565b60006020601f8301049050919050565b600082821b905092915050565b600060088302620003527fffffffffffffffffffffffffffffffffffffffffffffffffffffffffffffffff8262000313565b6200035e868362000313565b95508019841693508086168417925050509392505050565b6000819050919050565b6000819050919050565b6000620003ab620003a56200039f8462000376565b62000380565b62000376565b9050919050565b6000819050919050565b620003c7836200038a565b620003df620003d682620003b2565b84845462000320565b825550505050565b600090565b620003f6620003e7565b62000403818484620003bc565b505050565b5b818110156200042b576200041f600082620003ec565b60018101905062000409565b5050565b601f8211156200047a576200044481620002ee565b6200044f8462000303565b810160208510156200045f578190505b620004776200046e8562000303565b83018262000408565b50505b505050565b600082821c905092915050565b60006200049f600019846008026200047f565b1980831691505092915050565b6000620004ba83836200048c565b9150826002028217905092915050565b620004d5826200027f565b67ffffffffffffffff811115620004f157620004f062000096565b5b620004fd8254620002b9565b6200050a8282856200042f565b600060209050601f8311600181146200054257600084156200052d578287015190505b620005398582620004ac565b865550620005a9565b601f1984166200055286620002ee565b60005b828110156200057c5784890151825560018201915060208501945060208101905062000555565b868310156200059c578489015162000598601f8916826200048c565b8355505b6001600288020188555050505b505050505050565b613adc80620005c16000396000f3fe6080604052600436106101145760003560e01c80636352211e116100a0578063a9cdc03011610064578063a9cdc030146103bf578063b88d4fde146103db578063c87b56dd14610404578063e2f8a01714610441578063e985e9c51461045d57610114565b80636352211e146102c857806370a08231146103055780637870860b1461034257806395d89b411461036b578063a22cb4651461039657610114565b80631ad06806116100e75780631ad06806146101e757806323b872dd1461022457806342842e0e1461024d5780634e218da514610276578063624cc2801461029f57610114565b806301ffc9a71461011957806306fdde0314610156578063081812fc14610181578063095ea7b3146101be575b600080fd5b34801561012557600080fd5b50610140600480360381019061013b91906125e5565b61049a565b60405161014d919061262d565b60405180910390f35b34801561016257600080fd5b5061016b610514565b60405161017891906126d8565b60405180910390f35b34801561018d57600080fd5b506101a860048036038101906101a39190612730565b6105a6565b6040516101b5919061279e565b60405180910390f35b3480156101ca57600080fd5b506101e560048036038101906101e091906127e5565b6105ec565b005b3480156101f357600080fd5b5061020e60048036038101906102099190612730565b610643565b60405161021b919061279e565b60405180910390f35b34801561023057600080fd5b5061024b60048036038101906102469190612825565b610689565b005b34801561025957600080fd5b50610274600480360381019061026f9190612825565b6106e2565b005b34801561028257600080fd5b5061029d600480360381019061029891906127e5565b61073b565b005b3480156102ab57600080fd5b506102c660048036038101906102c191906127e5565b61092e565b005b3480156102d457600080fd5b506102ef60048036038101906102ea9190612730565b610ad8565b6040516102fc919061279e565b60405180910390f35b34801561031157600080fd5b5061032c60048036038101906103279190612878565b610b5e565b60405161033991906128b4565b60405180910390f35b34801561034e57600080fd5b5061036960048036038101906103649190612730565b610c15565b005b34801561037757600080fd5b50610380610e51565b60405161038d91906126d8565b60405180910390f35b3480156103a257600080fd5b506103bd60048036038101906103b891906128fb565b610ee3565b005b6103d960048036038101906103d4919061293b565b610ef9565b005b3480156103e757600080fd5b5061040260048036038101906103fd9190612aeb565b6112be565b005b34801561041057600080fd5b5061042b60048036038101906104269190612730565b611320565b60405161043891906126d8565b60405180910390f35b61045b60048036038101906104569190612730565b611388565b005b34801561046957600080fd5b50610484600480360381019061047f9190612b6e565b611530565b604051610491919061262d565b60405180910390f35b60007f67b4038f000000000000000000000000000000000000000000000000000000007bffffffffffffffffffffffffffffffffffffffffffffffffffffffff1916827bffffffffffffffffffffffffffffffffffffffffffffffffffffffff1916148061050d575061050c826115c4565b5b9050919050565b60606000805461052390612bdd565b80601f016020809104026020016040519081016040528092919081815260200182805461054f90612bdd565b801561059c5780601f106105715761010080835404028352916020019161059c565b820191906000526020600020905b81548152906001019060200180831161057f57829003601f168201915b5050505050905090565b60006105b1826116a6565b6004600083815260200190815260200160002060009054906101000a900473ffffffffffffffffffffffffffffffffffffffff169050919050565b6105f5816116f1565b15610635576040517f08c379a000000000000000000000000000000000000000000000000000000000815260040161062c90612c80565b60405180910390fd5b61063f8282611760565b5050565b600061064e826116a6565b6007600083815260200190815260200160002060009054906101000a900473ffffffffffffffffffffffffffffffffffffffff169050919050565b610692816116f1565b156106d2576040517f08c379a00000000000000000000000000000000000000000000000000000000081526004016106c990612d38565b60405180910390fd5b6106dd838383611877565b505050565b6106eb816116f1565b1561072b576040517f08c379a000000000000000000000000000000000000000000000000000000000815260040161072290612d38565b60405180910390fd5b6107368383836118d7565b505050565b610744816116f1565b15610784576040517f08c379a000000000000000000000000000000000000000000000000000000000815260040161077b90612c80565b60405180910390fd5b600061078f82610ad8565b90508073ffffffffffffffffffffffffffffffffffffffff168373ffffffffffffffffffffffffffffffffffffffff16036107ff576040517f08c379a00000000000000000000000000000000000000000000000000000000081526004016107f690612dca565b60405180910390fd5b8073ffffffffffffffffffffffffffffffffffffffff1661081e6118f7565b73ffffffffffffffffffffffffffffffffffffffff1614610874576040517f08c379a000000000000000000000000000000000000000000000000000000000815260040161086b90612e5c565b60405180910390fd5b826007600084815260200190815260200160002060006101000a81548173ffffffffffffffffffffffffffffffffffffffff021916908373ffffffffffffffffffffffffffffffffffffffff160217905550818373ffffffffffffffffffffffffffffffffffffffff166108e7846118ff565b73ffffffffffffffffffffffffffffffffffffffff167f92923139ac9e6fb93e879b89cd6d7cad993c7afadc8b3dc346aab70e433c873060405160405180910390a4505050565b60006006600083815260200190815260200160002060000160009054906101000a900473ffffffffffffffffffffffffffffffffffffffff1690508073ffffffffffffffffffffffffffffffffffffffff166109886118f7565b73ffffffffffffffffffffffffffffffffffffffff1614806109e457506109ae826105a6565b73ffffffffffffffffffffffffffffffffffffffff166109cc6118f7565b73ffffffffffffffffffffffffffffffffffffffff16145b610a23576040517f08c379a0000000000000000000000000000000000000000000000000000000008152600401610a1a90612eee565b60405180910390fd5b826006600084815260200190815260200160002060000160006101000a81548173ffffffffffffffffffffffffffffffffffffffff021916908373ffffffffffffffffffffffffffffffffffffffff160217905550818373ffffffffffffffffffffffffffffffffffffffff168273ffffffffffffffffffffffffffffffffffffffff167ffa2f086a560d0d5f43057f79a9682c82ebef7b9cd5d7f134b72d16ea0d2adf4d60405160405180910390a4505050565b600080610ae4836118ff565b9050600073ffffffffffffffffffffffffffffffffffffffff168173ffffffffffffffffffffffffffffffffffffffff1603610b55576040517f08c379a0000000000000000000000000000000000000000000000000000000008152600401610b4c90612f5a565b60405180910390fd5b80915050919050565b60008073ffffffffffffffffffffffffffffffffffffffff168273ffffffffffffffffffffffffffffffffffffffff1603610bce576040517f08c379a0000000000000000000000000000000000000000000000000000000008152600401610bc590612fec565b60405180910390fd5b600360008373ffffffffffffffffffffffffffffffffffffffff1673ffffffffffffffffffffffffffffffffffffffff168152602001908152602001600020549050919050565b6000600660008381526020019081526020016000209050600081600301548260020154610c42919061303b565b8260050154610c51919061307d565b42119050816003015482600401541480610c685750805b610ca7576040517f08c379a0000000000000000000000000000000000000000000000000000000008152600401610c9e906130fd565b60405180910390fd5b8015610dad5760006007600085815260200190815260200160002060009054906101000a900473ffffffffffffffffffffffffffffffffffffffff169050610d1c610cf1856118ff565b8460000160009054906101000a900473ffffffffffffffffffffffffffffffffffffffff168661193c565b806007600086815260200190815260200160002060006101000a81548173ffffffffffffffffffffffffffffffffffffffff021916908373ffffffffffffffffffffffffffffffffffffffff160217905550837fc2653d110e0ac6b0f8fa237368a0baa2ea04c45d185679e41704ee842ffffe1e6001604051610d9f919061262d565b60405180910390a250610de7565b827fc2653d110e0ac6b0f8fa237368a0baa2ea04c45d185679e41704ee842ffffe1e6000604051610dde919061262d565b60405180910390a25b60066000848152602001908152602001600020600080820160006101000a81549073ffffffffffffffffffffffffffffffffffffffff0219169055600182016000905560028201600090556003820160009055600482016000905560058201600090555050505050565b606060018054610e6090612bdd565b80601f0160208091040260200160405190810160405280929190818152602001828054610e8c90612bdd565b8015610ed95780601f10610eae57610100808354040283529160200191610ed9565b820191906000526020600020905b815481529060010190602001808311610ebc57829003601f168201915b5050505050905090565b610ef5610eee6118f7565b8383611c35565b5050565b60006007600087815260200190815260200160002060009054906101000a900473ffffffffffffffffffffffffffffffffffffffff1690506000610f3c876118ff565b9050610f466118f7565b73ffffffffffffffffffffffffffffffffffffffff168273ffffffffffffffffffffffffffffffffffffffff161480610fb15750610f826118f7565b73ffffffffffffffffffffffffffffffffffffffff168173ffffffffffffffffffffffffffffffffffffffff16145b610ff0576040517f08c379a0000000000000000000000000000000000000000000000000000000008152600401610fe79061318f565b60405180910390fd5b610ff9876116f1565b15611039576040517f08c379a0000000000000000000000000000000000000000000000000000000008152600401611030906131fb565b60405180910390fd5b600073ffffffffffffffffffffffffffffffffffffffff168673ffffffffffffffffffffffffffffffffffffffff16036110a8576040517f08c379a000000000000000000000000000000000000000000000000000000000815260040161109f9061328d565b60405180910390fd5b60006006600089815260200190815260200160002090506110ca82888a61193c565b82600760008a815260200190815260200160002060006101000a81548173ffffffffffffffffffffffffffffffffffffffff021916908373ffffffffffffffffffffffffffffffffffffffff160217905550818160000160006101000a81548173ffffffffffffffffffffffffffffffffffffffff021916908373ffffffffffffffffffffffffffffffffffffffff16021790555085816001018190555084816002018190555083816004018190555042816005018190555061118b6118f7565b73ffffffffffffffffffffffffffffffffffffffff168373ffffffffffffffffffffffffffffffffffffffff16036112565785341015611200576040517f08c379a00000000000000000000000000000000000000000000000000000000081526004016111f79061331f565b60405180910390fd5b8173ffffffffffffffffffffffffffffffffffffffff166108fc349081150290604051600060405180830381858888f19350505050158015611246573d6000803e3d6000fd5b5060018160030181905550611261565b600081600301819055505b8173ffffffffffffffffffffffffffffffffffffffff16887f9557a6ed416f5efdd607879ceef236becfc90ff001580dc620bae5dcbe4526788888886040516112ac9392919061333f565b60405180910390a35050505050505050565b6112cf6112c96118f7565b83611da1565b61130e576040517f08c379a0000000000000000000000000000000000000000000000000000000008152600401611305906133e8565b60405180910390fd5b61131a84848484611e36565b50505050565b606061132b826116a6565b6000611335611e92565b905060008151116113555760405180602001604052806000815250611380565b8061135f84611ea9565b604051602001611370929190613444565b6040516020818303038152906040525b915050919050565b611391816116f1565b6113d0576040517f08c379a00000000000000000000000000000000000000000000000000000000081526004016113c7906134b4565b60405180910390fd5b60006006600083815260200190815260200160002090508060040154816003015410611431576040517f08c379a000000000000000000000000000000000000000000000000000000000815260040161142890613520565b60405180910390fd5b8060010154341015611478576040517f08c379a000000000000000000000000000000000000000000000000000000000815260040161146f906135b2565b60405180910390fd5b8060000160009054906101000a900473ffffffffffffffffffffffffffffffffffffffff1673ffffffffffffffffffffffffffffffffffffffff166108fc349081150290604051600060405180830381858888f193505050501580156114e2573d6000803e3d6000fd5b5060018160030160008282546114f8919061307d565b92505081905550817ff21eb620eaa4584714e9fb24a440fcaa159c5748e81111f60741edca04d9783560405160405180910390a25050565b6000600560008473ffffffffffffffffffffffffffffffffffffffff1673ffffffffffffffffffffffffffffffffffffffff16815260200190815260200160002060008373ffffffffffffffffffffffffffffffffffffffff1673ffffffffffffffffffffffffffffffffffffffff16815260200190815260200160002060009054906101000a900460ff16905092915050565b60007f80ac58cd000000000000000000000000000000000000000000000000000000007bffffffffffffffffffffffffffffffffffffffffffffffffffffffff1916827bffffffffffffffffffffffffffffffffffffffffffffffffffffffff1916148061168f57507f5b5e139f000000000000000000000000000000000000000000000000000000007bffffffffffffffffffffffffffffffffffffffffffffffffffffffff1916827bffffffffffffffffffffffffffffffffffffffffffffffffffffffff1916145b8061169f575061169e82611f77565b5b9050919050565b6116af81611fe1565b6116ee576040517f08c379a00000000000000000000000000000000000000000000000000000000081526004016116e590612f5a565b60405180910390fd5b50565b60008073ffffffffffffffffffffffffffffffffffffffff166006600084815260200190815260200160002060000160009054906101000a900473ffffffffffffffffffffffffffffffffffffffff1673ffffffffffffffffffffffffffffffffffffffff1614159050919050565b600061176b82610ad8565b90508073ffffffffffffffffffffffffffffffffffffffff168373ffffffffffffffffffffffffffffffffffffffff16036117db576040517f08c379a00000000000000000000000000000000000000000000000000000000081526004016117d290613644565b60405180910390fd5b8073ffffffffffffffffffffffffffffffffffffffff166117fa6118f7565b73ffffffffffffffffffffffffffffffffffffffff1614806118295750611828816118236118f7565b611530565b5b611868576040517f08c379a000000000000000000000000000000000000000000000000000000000815260040161185f906136d6565b60405180910390fd5b6118728383612022565b505050565b6118886118826118f7565b82611da1565b6118c7576040517f08c379a00000000000000000000000000000000000000000000000000000000081526004016118be906133e8565b60405180910390fd5b6118d283838361193c565b505050565b6118f2838383604051806020016040528060008152506112be565b505050565b600033905090565b60006002600083815260200190815260200160002060009054906101000a900473ffffffffffffffffffffffffffffffffffffffff169050919050565b8273ffffffffffffffffffffffffffffffffffffffff1661195c82610ad8565b73ffffffffffffffffffffffffffffffffffffffff16146119b2576040517f08c379a00000000000000000000000000000000000000000000000000000000081526004016119a990613768565b60405180910390fd5b600073ffffffffffffffffffffffffffffffffffffffff168273ffffffffffffffffffffffffffffffffffffffff1603611a21576040517f08c379a0000000000000000000000000000000000000000000000000000000008152600401611a18906137fa565b60405180910390fd5b611a2e83838360016120db565b8273ffffffffffffffffffffffffffffffffffffffff16611a4e82610ad8565b73ffffffffffffffffffffffffffffffffffffffff1614611aa4576040517f08c379a0000000000000000000000000000000000000000000000000000000008152600401611a9b90613768565b60405180910390fd5b6004600082815260200190815260200160002060006101000a81549073ffffffffffffffffffffffffffffffffffffffff02191690556001600360008573ffffffffffffffffffffffffffffffffffffffff1673ffffffffffffffffffffffffffffffffffffffff168152602001908152602001600020600082825403925050819055506001600360008473ffffffffffffffffffffffffffffffffffffffff1673ffffffffffffffffffffffffffffffffffffffff16815260200190815260200160002060008282540192505081905550816002600083815260200190815260200160002060006101000a81548173ffffffffffffffffffffffffffffffffffffffff021916908373ffffffffffffffffffffffffffffffffffffffff160217905550808273ffffffffffffffffffffffffffffffffffffffff168473ffffffffffffffffffffffffffffffffffffffff167fddf252ad1be2c89b69c2b068fc378daa952ba7f163c4a11628f55a4df523b3ef60405160405180910390a4611c308383836001612150565b505050565b8173ffffffffffffffffffffffffffffffffffffffff168373ffffffffffffffffffffffffffffffffffffffff1603611ca3576040517f08c379a0000000000000000000000000000000000000000000000000000000008152600401611c9a90613866565b60405180910390fd5b80600560008573ffffffffffffffffffffffffffffffffffffffff1673ffffffffffffffffffffffffffffffffffffffff16815260200190815260200160002060008473ffffffffffffffffffffffffffffffffffffffff1673ffffffffffffffffffffffffffffffffffffffff16815260200190815260200160002060006101000a81548160ff0219169083151502179055508173ffffffffffffffffffffffffffffffffffffffff168373ffffffffffffffffffffffffffffffffffffffff167f17307eab39ab6107e8899845ad3d59bd9653f200f220920489ca2b5937696c3183604051611d94919061262d565b60405180910390a3505050565b600080611dad83610ad8565b90508073ffffffffffffffffffffffffffffffffffffffff168473ffffffffffffffffffffffffffffffffffffffff161480611def5750611dee8185611530565b5b80611e2d57508373ffffffffffffffffffffffffffffffffffffffff16611e15846105a6565b73ffffffffffffffffffffffffffffffffffffffff16145b91505092915050565b611e4184848461193c565b611e4d84848484612156565b611e8c576040517f08c379a0000000000000000000000000000000000000000000000000000000008152600401611e83906138f8565b60405180910390fd5b50505050565b606060405180602001604052806000815250905090565b606060006001611eb8846122dd565b01905060008167ffffffffffffffff811115611ed757611ed66129c0565b5b6040519080825280601f01601f191660200182016040528015611f095781602001600182028036833780820191505090505b509050600082602001820190505b600115611f6c578080600190039150507f3031323334353637383961626364656600000000000000000000000000000000600a86061a8153600a8581611f6057611f5f613918565b5b04945060008503611f17575b819350505050919050565b60007f01ffc9a7000000000000000000000000000000000000000000000000000000007bffffffffffffffffffffffffffffffffffffffffffffffffffffffff1916827bffffffffffffffffffffffffffffffffffffffffffffffffffffffff1916149050919050565b60008073ffffffffffffffffffffffffffffffffffffffff16612003836118ff565b73ffffffffffffffffffffffffffffffffffffffff1614159050919050565b816004600083815260200190815260200160002060006101000a81548173ffffffffffffffffffffffffffffffffffffffff021916908373ffffffffffffffffffffffffffffffffffffffff160217905550808273ffffffffffffffffffffffffffffffffffffffff1661209583610ad8565b73ffffffffffffffffffffffffffffffffffffffff167f8c5be1e5ebec7d5bd14f71427d1e84f3dd0314c0f7b2291e5b200ac8c7c3b92560405160405180910390a45050565b6120e784848484612430565b60008290505b81836120f9919061307d565b811015612149576007600082815260200190815260200160002060006101000a81549073ffffffffffffffffffffffffffffffffffffffff0219169055808061214190613947565b9150506120ed565b5050505050565b50505050565b60006121778473ffffffffffffffffffffffffffffffffffffffff16612556565b156122d0578373ffffffffffffffffffffffffffffffffffffffff1663150b7a026121a06118f7565b8786866040518563ffffffff1660e01b81526004016121c294939291906139e4565b6020604051808303816000875af19250505080156121fe57506040513d601f19601f820116820180604052508101906121fb9190613a45565b60015b612280573d806000811461222e576040519150601f19603f3d011682016040523d82523d6000602084013e612233565b606091505b506000815103612278576040517f08c379a000000000000000000000000000000000000000000000000000000000815260040161226f906138f8565b60405180910390fd5b805181602001fd5b63150b7a0260e01b7bffffffffffffffffffffffffffffffffffffffffffffffffffffffff1916817bffffffffffffffffffffffffffffffffffffffffffffffffffffffff1916149150506122d5565b600190505b949350505050565b600080600090507a184f03e93ff9f4daa797ed6e38ed64bf6a1f010000000000000000831061233b577a184f03e93ff9f4daa797ed6e38ed64bf6a1f010000000000000000838161233157612330613918565b5b0492506040810190505b6d04ee2d6d415b85acef81000000008310612378576d04ee2d6d415b85acef8100000000838161236e5761236d613918565b5b0492506020810190505b662386f26fc1000083106123a757662386f26fc10000838161239d5761239c613918565b5b0492506010810190505b6305f5e10083106123d0576305f5e10083816123c6576123c5613918565b5b0492506008810190505b61271083106123f55761271083816123eb576123ea613918565b5b0492506004810190505b60648310612418576064838161240e5761240d613918565b5b0492506002810190505b600a8310612427576001810190505b80915050919050565b600181111561255057600073ffffffffffffffffffffffffffffffffffffffff168473ffffffffffffffffffffffffffffffffffffffff16146124c45780600360008673ffffffffffffffffffffffffffffffffffffffff1673ffffffffffffffffffffffffffffffffffffffff16815260200190815260200160002060008282546124bc9190613a72565b925050819055505b600073ffffffffffffffffffffffffffffffffffffffff168373ffffffffffffffffffffffffffffffffffffffff161461254f5780600360008573ffffffffffffffffffffffffffffffffffffffff1673ffffffffffffffffffffffffffffffffffffffff1681526020019081526020016000206000828254612547919061307d565b925050819055505b5b50505050565b6000808273ffffffffffffffffffffffffffffffffffffffff163b119050919050565b6000604051905090565b600080fd5b600080fd5b60007fffffffff0000000000000000000000000000000000000000000000000000000082169050919050565b6125c28161258d565b81146125cd57600080fd5b50565b6000813590506125df816125b9565b92915050565b6000602082840312156125fb576125fa612583565b5b6000612609848285016125d0565b91505092915050565b60008115159050919050565b61262781612612565b82525050565b6000602082019050612642600083018461261e565b92915050565b600081519050919050565b600082825260208201905092915050565b60005b83811015612682578082015181840152602081019050612667565b60008484015250505050565b6000601f19601f8301169050919050565b60006126aa82612648565b6126b48185612653565b93506126c4818560208601612664565b6126cd8161268e565b840191505092915050565b600060208201905081810360008301526126f2818461269f565b905092915050565b6000819050919050565b61270d816126fa565b811461271857600080fd5b50565b60008135905061272a81612704565b92915050565b60006020828403121561274657612745612583565b5b60006127548482850161271b565b91505092915050565b600073ffffffffffffffffffffffffffffffffffffffff82169050919050565b60006127888261275d565b9050919050565b6127988161277d565b82525050565b60006020820190506127b3600083018461278f565b92915050565b6127c28161277d565b81146127cd57600080fd5b50565b6000813590506127df816127b9565b92915050565b600080604083850312156127fc576127fb612583565b5b600061280a858286016127d0565b925050602061281b8582860161271b565b9150509250929050565b60008060006060848603121561283e5761283d612583565b5b600061284c868287016127d0565b935050602061285d868287016127d0565b925050604061286e8682870161271b565b9150509250925092565b60006020828403121561288e5761288d612583565b5b600061289c848285016127d0565b91505092915050565b6128ae816126fa565b82525050565b60006020820190506128c960008301846128a5565b92915050565b6128d881612612565b81146128e357600080fd5b50565b6000813590506128f5816128cf565b92915050565b6000806040838503121561291257612911612583565b5b6000612920858286016127d0565b9250506020612931858286016128e6565b9150509250929050565b600080600080600060a0868803121561295757612956612583565b5b60006129658882890161271b565b9550506020612976888289016127d0565b94505060406129878882890161271b565b93505060606129988882890161271b565b92505060806129a98882890161271b565b9150509295509295909350565b600080fd5b600080fd5b7f4e487b7100000000000000000000000000000000000000000000000000000000600052604160045260246000fd5b6129f88261268e565b810181811067ffffffffffffffff82111715612a1757612a166129c0565b5b80604052505050565b6000612a2a612579565b9050612a3682826129ef565b919050565b600067ffffffffffffffff821115612a5657612a556129c0565b5b612a5f8261268e565b9050602081019050919050565b82818337600083830152505050565b6000612a8e612a8984612a3b565b612a20565b905082815260208101848484011115612aaa57612aa96129bb565b5b612ab5848285612a6c565b509392505050565b600082601f830112612ad257612ad16129b6565b5b8135612ae2848260208601612a7b565b91505092915050565b60008060008060808587031215612b0557612b04612583565b5b6000612b13878288016127d0565b9450506020612b24878288016127d0565b9350506040612b358782880161271b565b925050606085013567ffffffffffffffff811115612b5657612b55612588565b5b612b6287828801612abd565b91505092959194509250565b60008060408385031215612b8557612b84612583565b5b6000612b93858286016127d0565b9250506020612ba4858286016127d0565b9150509250929050565b7f4e487b7100000000000000000000000000000000000000000000000000000000600052602260045260246000fd5b60006002820490506001821680612bf557607f821691505b602082108103612c0857612c07612bae565b5b50919050565b7f455243583a2043616e6e6f7420617070726f7665206c6f616e656420746f6b6560008201527f6e00000000000000000000000000000000000000000000000000000000000000602082015250565b6000612c6a602183612653565b9150612c7582612c0e565b604082019050919050565b60006020820190508181036000830152612c9981612c5d565b9050919050565b7f455243583a20757365207472616e736665724c6f616e6564546f6b656e20667560008201527f6e6374696f6e20746f207472616e736665722061206c6f616e656420746f6b6560208201527f6e00000000000000000000000000000000000000000000000000000000000000604082015250565b6000612d22604183612653565b9150612d2d82612ca0565b606082019050919050565b60006020820190508181036000830152612d5181612d15565b9050919050565b7f455243583a2052656e74616c20617070726f76616c20746f2063757272656e7460008201527f206f776e65720000000000000000000000000000000000000000000000000000602082015250565b6000612db4602683612653565b9150612dbf82612d58565b604082019050919050565b60006020820190508181036000830152612de381612da7565b9050919050565b7f455243583a20617070726f76652063616c6c6572206973206e6f7420746f6b6560008201527f6e206f776e657200000000000000000000000000000000000000000000000000602082015250565b6000612e46602783612653565b9150612e5182612dea565b604082019050919050565b60006020820190508181036000830152612e7581612e39565b9050919050565b7f455243583a206f6e6c79206c6f616e6572206f7220617070726f76656420616460008201527f64726573732063616e207472616e7366657220647572696e67206c6f616e0000602082015250565b6000612ed8603e83612653565b9150612ee382612e7c565b604082019050919050565b60006020820190508181036000830152612f0781612ecb565b9050919050565b7f4552433732313a20696e76616c696420746f6b656e2049440000000000000000600082015250565b6000612f44601883612653565b9150612f4f82612f0e565b602082019050919050565b60006020820190508181036000830152612f7381612f37565b9050919050565b7f4552433732313a2061646472657373207a65726f206973206e6f74206120766160008201527f6c6964206f776e65720000000000000000000000000000000000000000000000602082015250565b6000612fd6602983612653565b9150612fe182612f7a565b604082019050919050565b6000602082019050818103600083015261300581612fc9565b9050919050565b7f4e487b7100000000000000000000000000000000000000000000000000000000600052601160045260246000fd5b6000613046826126fa565b9150613051836126fa565b925082820261305f816126fa565b915082820484148315176130765761307561300c565b5b5092915050565b6000613088826126fa565b9150613093836126fa565b92508282019050808211156130ab576130aa61300c565b5b92915050565b7f455243583a206c6f616e206e6f7420796574207465726d696e61746564000000600082015250565b60006130e7601d83612653565b91506130f2826130b1565b602082019050919050565b60006020820190508181036000830152613116816130da565b9050919050565b7f455243583a2043616e2062652063616c6c6564206f6e6c79206279206f776e6560008201527f72206f72206164647265737320617070726f76656420666f72206c6f616e0000602082015250565b6000613179603e83612653565b91506131848261311d565b604082019050919050565b600060208201905081810360008301526131a88161316c565b9050919050565b7f455243583a2043616e6e6f74207375626c6f616e000000000000000000000000600082015250565b60006131e5601483612653565b91506131f0826131af565b602082019050919050565b60006020820190508181036000830152613214816131d8565b9050919050565b7f455243583a2063616e6e6f74206c6f616e20746f20746865207a65726f20616460008201527f6472657373000000000000000000000000000000000000000000000000000000602082015250565b6000613277602583612653565b91506132828261321b565b604082019050919050565b600060208201905081810360008301526132a68161326a565b9050919050565b7f455243583a20466972737420696e7374616c6c6d656e74206d7573742062652060008201527f7061696420746f20737461727420746865206c6f616e00000000000000000000602082015250565b6000613309603683612653565b9150613314826132ad565b604082019050919050565b60006020820190508181036000830152613338816132fc565b9050919050565b600060608201905061335460008301866128a5565b61336160208301856128a5565b61336e60408301846128a5565b949350505050565b7f4552433732313a2063616c6c6572206973206e6f7420746f6b656e206f776e6560008201527f72206f7220617070726f76656400000000000000000000000000000000000000602082015250565b60006133d2602d83612653565b91506133dd82613376565b604082019050919050565b60006020820190508181036000830152613401816133c5565b9050919050565b600081905092915050565b600061341e82612648565b6134288185613408565b9350613438818560208601612664565b80840191505092915050565b60006134508285613413565b915061345c8284613413565b91508190509392505050565b7f455243583a20546f6b656e206973206e6f74206c6f616e656400000000000000600082015250565b600061349e601983612653565b91506134a982613468565b602082019050919050565b600060208201905081810360008301526134cd81613491565b9050919050565b7f455243583a20416c6c20696e7374616c6c6d656e747320706169642079657400600082015250565b600061350a601f83612653565b9150613515826134d4565b602082019050919050565b60006020820190508181036000830152613539816134fd565b9050919050565b7f455243583a2053656e742076616c7565206d757374206265206772656174657260008201527f206f7220657175616c20746f20696e7374616c6c6d656e742076616c75650000602082015250565b600061359c603e83612653565b91506135a782613540565b604082019050919050565b600060208201905081810360008301526135cb8161358f565b9050919050565b7f4552433732313a20617070726f76616c20746f2063757272656e74206f776e6560008201527f7200000000000000000000000000000000000000000000000000000000000000602082015250565b600061362e602183612653565b9150613639826135d2565b604082019050919050565b6000602082019050818103600083015261365d81613621565b9050919050565b7f4552433732313a20617070726f76652063616c6c6572206973206e6f7420746f60008201527f6b656e206f776e6572206f7220617070726f76656420666f7220616c6c000000602082015250565b60006136c0603d83612653565b91506136cb82613664565b604082019050919050565b600060208201905081810360008301526136ef816136b3565b9050919050565b7f4552433732313a207472616e736665722066726f6d20696e636f72726563742060008201527f6f776e6572000000000000000000000000000000000000000000000000000000602082015250565b6000613752602583612653565b915061375d826136f6565b604082019050919050565b6000602082019050818103600083015261378181613745565b9050919050565b7f4552433732313a207472616e7366657220746f20746865207a65726f2061646460008201527f7265737300000000000000000000000000000000000000000000000000000000602082015250565b60006137e4602483612653565b91506137ef82613788565b604082019050919050565b60006020820190508181036000830152613813816137d7565b9050919050565b7f4552433732313a20617070726f766520746f2063616c6c657200000000000000600082015250565b6000613850601983612653565b915061385b8261381a565b602082019050919050565b6000602082019050818103600083015261387f81613843565b9050919050565b7f4552433732313a207472616e7366657220746f206e6f6e20455243373231526560008201527f63656976657220696d706c656d656e7465720000000000000000000000000000602082015250565b60006138e2603283612653565b91506138ed82613886565b604082019050919050565b60006020820190508181036000830152613911816138d5565b9050919050565b7f4e487b7100000000000000000000000000000000000000000000000000000000600052601260045260246000fd5b6000613952826126fa565b91507fffffffffffffffffffffffffffffffffffffffffffffffffffffffffffffffff82036139845761398361300c565b5b600182019050919050565b600081519050919050565b600082825260208201905092915050565b60006139b68261398f565b6139c0818561399a565b93506139d0818560208601612664565b6139d98161268e565b840191505092915050565b60006080820190506139f9600083018761278f565b613a06602083018661278f565b613a1360408301856128a5565b8181036060830152613a2581846139ab565b905095945050505050565b600081519050613a3f816125b9565b92915050565b600060208284031215613a5b57613a5a612583565b5b6000613a6984828501613a30565b91505092915050565b6000613a7d826126fa565b9150613a88836126fa565b9250828203905081811115613aa057613a9f61300c565b5b9291505056fea2646970667358221220a0f1aca473a052e8b776b7eb75b47ec7af45ed2c267ad9cc7f41d77ec50341d664736f6c63430008110033",
  "linkReferences": {},
  "deployedLinkReferences": {}
}