{
  "_format": "hh-sol-artifact-1",
  "contractName": "ERCX",
  "sourceName": "contracts/ERCX_v0.sol",
  "abi": [
    {
      "inputs": [
        {
          "internalType": "string",
          "name": "name_",
          "type": "string"
        },
        {
          "internalType": "string",
          "name": "symbol_",
          "type": "string"
        }
      ],
      "stateMutability": "nonpayable",
      "type": "constructor"
    },
    {
      "anonymous": false,
      "inputs": [
        {
          "indexed": true,
          "internalType": "address",
          "name": "owner",
          "type": "address"
        },
        {
          "indexed": true,
          "internalType": "address",
          "name": "approved",
          "type": "address"
        },
        {
          "indexed": true,
          "internalType": "uint256",
          "name": "tokenId",
          "type": "uint256"
        }
      ],
      "name": "Approval",
      "type": "event"
    },
    {
      "anonymous": false,
      "inputs": [
        {
          "indexed": true,
          "internalType": "address",
          "name": "owner",
          "type": "address"
        },
        {
          "indexed": true,
          "internalType": "address",
          "name": "operator",
          "type": "address"
        },
        {
          "indexed": false,
          "internalType": "bool",
          "name": "approved",
          "type": "bool"
        }
      ],
      "name": "ApprovalForAll",
      "type": "event"
    },
    {
      "anonymous": false,
      "inputs": [
        {
          "indexed": true,
          "internalType": "address",
          "name": "owner",
          "type": "address"
        },
        {
          "indexed": true,
          "internalType": "address",
          "name": "approved",
          "type": "address"
        },
        {
          "indexed": true,
          "internalType": "uint256",
          "name": "tokenId",
          "type": "uint256"
        }
      ],
      "name": "RentalApproval",
      "type": "event"
    },
    {
      "anonymous": false,
      "inputs": [
        {
          "indexed": true,
          "internalType": "uint256",
          "name": "tokenId",
          "type": "uint256"
        },
        {
          "indexed": true,
          "internalType": "address",
          "name": "exOwner",
          "type": "address"
        },
        {
          "indexed": false,
          "internalType": "uint256",
          "name": "deadline",
          "type": "uint256"
        }
      ],
      "name": "RentalUpdate",
      "type": "event"
    },
    {
      "anonymous": false,
      "inputs": [
        {
          "indexed": true,
          "internalType": "address",
          "name": "from",
          "type": "address"
        },
        {
          "indexed": true,
          "internalType": "address",
          "name": "to",
          "type": "address"
        },
        {
          "indexed": true,
          "internalType": "uint256",
          "name": "tokenId",
          "type": "uint256"
        }
      ],
      "name": "Transfer",
      "type": "event"
    },
    {
      "inputs": [
        {
          "internalType": "address",
          "name": "to",
          "type": "address"
        },
        {
          "internalType": "uint256",
          "name": "tokenId",
          "type": "uint256"
        }
      ],
      "name": "approve",
      "outputs": [],
      "stateMutability": "nonpayable",
      "type": "function"
    },
    {
      "inputs": [
        {
          "internalType": "address",
          "name": "to",
          "type": "address"
        },
        {
          "internalType": "uint256",
          "name": "tokenId",
          "type": "uint256"
        }
      ],
      "name": "approveRentalControl",
      "outputs": [],
      "stateMutability": "nonpayable",
      "type": "function"
    },
    {
      "inputs": [
        {
          "internalType": "address",
          "name": "owner",
          "type": "address"
        }
      ],
      "name": "balanceOf",
      "outputs": [
        {
          "internalType": "uint256",
          "name": "",
          "type": "uint256"
        }
      ],
      "stateMutability": "view",
      "type": "function"
    },
    {
      "inputs": [
        {
          "internalType": "uint256",
          "name": "tokenId",
          "type": "uint256"
        },
        {
          "internalType": "uint256",
          "name": "deadline",
          "type": "uint256"
        }
      ],
      "name": "deadlineUpdate",
      "outputs": [],
      "stateMutability": "nonpayable",
      "type": "function"
    },
    {
      "inputs": [
        {
          "internalType": "uint256",
          "name": "tokenId",
          "type": "uint256"
        }
      ],
      "name": "endRental",
      "outputs": [],
      "stateMutability": "nonpayable",
      "type": "function"
    },
    {
      "inputs": [
        {
          "internalType": "uint256",
          "name": "tokenId",
          "type": "uint256"
        }
      ],
      "name": "getApproved",
      "outputs": [
        {
          "internalType": "address",
          "name": "",
          "type": "address"
        }
      ],
      "stateMutability": "view",
      "type": "function"
    },
    {
      "inputs": [
        {
          "internalType": "uint256",
          "name": "tokenId",
          "type": "uint256"
        }
      ],
      "name": "getRentalApproved",
      "outputs": [
        {
          "internalType": "address",
          "name": "approved",
          "type": "address"
        }
      ],
      "stateMutability": "view",
      "type": "function"
    },
    {
      "inputs": [
        {
          "internalType": "address",
          "name": "owner",
          "type": "address"
        },
        {
          "internalType": "address",
          "name": "operator",
          "type": "address"
        }
      ],
      "name": "isApprovedForAll",
      "outputs": [
        {
          "internalType": "bool",
          "name": "",
          "type": "bool"
        }
      ],
      "stateMutability": "view",
      "type": "function"
    },
    {
      "inputs": [],
      "name": "name",
      "outputs": [
        {
          "internalType": "string",
          "name": "",
          "type": "string"
        }
      ],
      "stateMutability": "view",
      "type": "function"
    },
    {
      "inputs": [
        {
          "internalType": "uint256",
          "name": "tokenId",
          "type": "uint256"
        }
      ],
      "name": "ownerOf",
      "outputs": [
        {
          "internalType": "address",
          "name": "",
          "type": "address"
        }
      ],
      "stateMutability": "view",
      "type": "function"
    },
    {
      "inputs": [
        {
          "internalType": "address",
          "name": "to",
          "type": "address"
        },
        {
          "internalType": "uint256",
          "name": "tokenId",
          "type": "uint256"
        },
        {
          "internalType": "uint256",
          "name": "deadline",
          "type": "uint256"
        }
      ],
      "name": "rent",
      "outputs": [],
      "stateMutability": "nonpayable",
      "type": "function"
    },
    {
      "inputs": [
        {
          "internalType": "uint256",
          "name": "tokenId",
          "type": "uint256"
        }
      ],
      "name": "rentalInfo",
      "outputs": [
        {
          "internalType": "address",
          "name": "exOwner",
          "type": "address"
        },
        {
          "internalType": "uint256",
          "name": "deadline",
          "type": "uint256"
        }
      ],
      "stateMutability": "view",
      "type": "function"
    },
    {
      "inputs": [
        {
          "internalType": "address",
          "name": "from",
          "type": "address"
        },
        {
          "internalType": "address",
          "name": "to",
          "type": "address"
        },
        {
          "internalType": "uint256",
          "name": "tokenId",
          "type": "uint256"
        }
      ],
      "name": "safeTransferFrom",
      "outputs": [],
      "stateMutability": "nonpayable",
      "type": "function"
    },
    {
      "inputs": [
        {
          "internalType": "address",
          "name": "from",
          "type": "address"
        },
        {
          "internalType": "address",
          "name": "to",
          "type": "address"
        },
        {
          "internalType": "uint256",
          "name": "tokenId",
          "type": "uint256"
        },
        {
          "internalType": "bytes",
          "name": "data",
          "type": "bytes"
        }
      ],
      "name": "safeTransferFrom",
      "outputs": [],
      "stateMutability": "nonpayable",
      "type": "function"
    },
    {
      "inputs": [
        {
          "internalType": "address",
          "name": "operator",
          "type": "address"
        },
        {
          "internalType": "bool",
          "name": "approved",
          "type": "bool"
        }
      ],
      "name": "setApprovalForAll",
      "outputs": [],
      "stateMutability": "nonpayable",
      "type": "function"
    },
    {
      "inputs": [
        {
          "internalType": "bytes4",
          "name": "interfaceId",
          "type": "bytes4"
        }
      ],
      "name": "supportsInterface",
      "outputs": [
        {
          "internalType": "bool",
          "name": "",
          "type": "bool"
        }
      ],
      "stateMutability": "view",
      "type": "function"
    },
    {
      "inputs": [],
      "name": "symbol",
      "outputs": [
        {
          "internalType": "string",
          "name": "",
          "type": "string"
        }
      ],
      "stateMutability": "view",
      "type": "function"
    },
    {
      "inputs": [
        {
          "internalType": "uint256",
          "name": "tokenId",
          "type": "uint256"
        }
      ],
      "name": "tokenURI",
      "outputs": [
        {
          "internalType": "string",
          "name": "",
          "type": "string"
        }
      ],
      "stateMutability": "view",
      "type": "function"
    },
    {
      "inputs": [
        {
          "internalType": "address",
          "name": "from",
          "type": "address"
        },
        {
          "internalType": "address",
          "name": "to",
          "type": "address"
        },
        {
          "internalType": "uint256",
          "name": "tokenId",
          "type": "uint256"
        }
      ],
      "name": "transferFrom",
      "outputs": [],
      "stateMutability": "nonpayable",
      "type": "function"
    }
  ],
  "bytecode": "0x60806040523480156200001157600080fd5b5060405162003d9238038062003d928339818101604052810190620000379190620001fa565b818181600090816200004a9190620004ca565b5080600190816200005c9190620004ca565b5050505050620005b1565b6000604051905090565b600080fd5b600080fd5b600080fd5b600080fd5b6000601f19601f8301169050919050565b7f4e487b7100000000000000000000000000000000000000000000000000000000600052604160045260246000fd5b620000d08262000085565b810181811067ffffffffffffffff82111715620000f257620000f162000096565b5b80604052505050565b60006200010762000067565b9050620001158282620000c5565b919050565b600067ffffffffffffffff82111562000138576200013762000096565b5b620001438262000085565b9050602081019050919050565b60005b838110156200017057808201518184015260208101905062000153565b60008484015250505050565b6000620001936200018d846200011a565b620000fb565b905082815260208101848484011115620001b257620001b162000080565b5b620001bf84828562000150565b509392505050565b600082601f830112620001df57620001de6200007b565b5b8151620001f18482602086016200017c565b91505092915050565b6000806040838503121562000214576200021362000071565b5b600083015167ffffffffffffffff81111562000235576200023462000076565b5b6200024385828601620001c7565b925050602083015167ffffffffffffffff81111562000267576200026662000076565b5b6200027585828601620001c7565b9150509250929050565b600081519050919050565b7f4e487b7100000000000000000000000000000000000000000000000000000000600052602260045260246000fd5b60006002820490506001821680620002d257607f821691505b602082108103620002e857620002e76200028a565b5b50919050565b60008190508160005260206000209050919050565b60006020601f8301049050919050565b600082821b905092915050565b600060088302620003527fffffffffffffffffffffffffffffffffffffffffffffffffffffffffffffffff8262000313565b6200035e868362000313565b95508019841693508086168417925050509392505050565b6000819050919050565b6000819050919050565b6000620003ab620003a56200039f8462000376565b62000380565b62000376565b9050919050565b6000819050919050565b620003c7836200038a565b620003df620003d682620003b2565b84845462000320565b825550505050565b600090565b620003f6620003e7565b62000403818484620003bc565b505050565b5b818110156200042b576200041f600082620003ec565b60018101905062000409565b5050565b601f8211156200047a576200044481620002ee565b6200044f8462000303565b810160208510156200045f578190505b620004776200046e8562000303565b83018262000408565b50505b505050565b600082821c905092915050565b60006200049f600019846008026200047f565b1980831691505092915050565b6000620004ba83836200048c565b9150826002028217905092915050565b620004d5826200027f565b67ffffffffffffffff811115620004f157620004f062000096565b5b620004fd8254620002b9565b6200050a8282856200042f565b600060209050601f8311600181146200054257600084156200052d578287015190505b620005398582620004ac565b865550620005a9565b601f1984166200055286620002ee565b60005b828110156200057c5784890151825560018201915060208501945060208101905062000555565b868310156200059c578489015162000598601f8916826200048c565b8355505b6001600288020188555050505b505050505050565b6137d180620005c16000396000f3fe608060405234801561001057600080fd5b50600436106101215760003560e01c806370a08231116100ad578063b88d4fde11610071578063b88d4fde1461032b578063c87b56dd14610347578063d43fd55414610377578063e985e9c514610393578063ffe7c8e4146103c357610121565b806370a082311461027557806395d89b41146102a557806397491d6f146102c35780639dd5a73d146102df578063a22cb4651461030f57610121565b806323b872dd116100f457806323b872dd146101c057806342842e0e146101dc5780634dc32a18146101f85780636116f179146102145780636352211e1461024557610121565b806301ffc9a71461012657806306fdde0314610156578063081812fc14610174578063095ea7b3146101a4575b600080fd5b610140600480360381019061013b9190612358565b6103df565b60405161014d91906123a0565b60405180910390f35b61015e610459565b60405161016b919061244b565b60405180910390f35b61018e600480360381019061018991906124a3565b6104eb565b60405161019b9190612511565b60405180910390f35b6101be60048036038101906101b99190612558565b610531565b005b6101da60048036038101906101d59190612598565b610588565b005b6101f660048036038101906101f19190612598565b6105e8565b005b610212600480360381019061020d91906125eb565b610608565b005b61022e600480360381019061022991906124a3565b610918565b60405161023c92919061264d565b60405180910390f35b61025f600480360381019061025a91906124a3565b6109bc565b60405161026c9190612511565b60405180910390f35b61028f600480360381019061028a9190612676565b610a42565b60405161029c91906126a3565b60405180910390f35b6102ad610af9565b6040516102ba919061244b565b60405180910390f35b6102dd60048036038101906102d891906124a3565b610b8b565b005b6102f960048036038101906102f491906124a3565b610dbb565b6040516103069190612511565b60405180910390f35b610329600480360381019061032491906126ea565b610e01565b005b6103456004803603810190610340919061285f565b610e17565b005b610361600480360381019061035c91906124a3565b610e79565b60405161036e919061244b565b60405180910390f35b610391600480360381019061038c9190612558565b610ee1565b005b6103ad60048036038101906103a891906128e2565b6110d4565b6040516103ba91906123a0565b60405180910390f35b6103dd60048036038101906103d89190612922565b611168565b005b60007f9360451e000000000000000000000000000000000000000000000000000000007bffffffffffffffffffffffffffffffffffffffffffffffffffffffff1916827bffffffffffffffffffffffffffffffffffffffffffffffffffffffff1916148061045257506104518261136e565b5b9050919050565b60606000805461046890612991565b80601f016020809104026020016040519081016040528092919081815260200182805461049490612991565b80156104e15780601f106104b6576101008083540402835291602001916104e1565b820191906000526020600020905b8154815290600101906020018083116104c457829003601f168201915b5050505050905090565b60006104f682611450565b6004600083815260200190815260200160002060009054906101000a900473ffffffffffffffffffffffffffffffffffffffff169050919050565b61053a8161149b565b1561057a576040517f08c379a000000000000000000000000000000000000000000000000000000000815260040161057190612a34565b60405180910390fd5b610584828261150a565b5050565b610599610593611621565b82611629565b6105d8576040517f08c379a00000000000000000000000000000000000000000000000000000000081526004016105cf90612ac6565b60405180910390fd5b6105e38383836116be565b505050565b61060383838360405180602001604052806000815250610e17565b505050565b60006007600084815260200190815260200160002060009054906101000a900473ffffffffffffffffffffffffffffffffffffffff169050610648611621565b73ffffffffffffffffffffffffffffffffffffffff16610667846109bc565b73ffffffffffffffffffffffffffffffffffffffff1614806106bb575061068c611621565b73ffffffffffffffffffffffffffffffffffffffff168173ffffffffffffffffffffffffffffffffffffffff16145b6106fa576040517f08c379a00000000000000000000000000000000000000000000000000000000081526004016106f190612b58565b60405180910390fd5b6107038361149b565b15610743576040517f08c379a000000000000000000000000000000000000000000000000000000000815260040161073a90612bc4565b60405180910390fd5b428211610785576040517f08c379a000000000000000000000000000000000000000000000000000000000815260040161077c90612c56565b60405180910390fd5b600073ffffffffffffffffffffffffffffffffffffffff168473ffffffffffffffffffffffffffffffffffffffff16036107f4576040517f08c379a00000000000000000000000000000000000000000000000000000000081526004016107eb90612ce8565b60405180910390fd5b60006006600085815260200190815260200160002090506000610816856119b7565b90506108238187876116be565b826007600087815260200190815260200160002060006101000a81548173ffffffffffffffffffffffffffffffffffffffff021916908373ffffffffffffffffffffffffffffffffffffffff160217905550808260000160006101000a81548173ffffffffffffffffffffffffffffffffffffffff021916908373ffffffffffffffffffffffffffffffffffffffff1602179055508382600101819055508073ffffffffffffffffffffffffffffffffffffffff16857f80a6be100498a97a416f2eed3398281d1d00c4297200b49cf2853d773de7c9df8660405161090891906126a3565b60405180910390a3505050505050565b600080826109258161149b565b610964576040517f08c379a000000000000000000000000000000000000000000000000000000000815260040161095b90612d7a565b60405180910390fd5b6006600085815260200190815260200160002060000160009054906101000a900473ffffffffffffffffffffffffffffffffffffffff1660066000868152602001908152602001600020600101549250925050915091565b6000806109c8836119b7565b9050600073ffffffffffffffffffffffffffffffffffffffff168173ffffffffffffffffffffffffffffffffffffffff1603610a39576040517f08c379a0000000000000000000000000000000000000000000000000000000008152600401610a3090612de6565b60405180910390fd5b80915050919050565b60008073ffffffffffffffffffffffffffffffffffffffff168273ffffffffffffffffffffffffffffffffffffffff1603610ab2576040517f08c379a0000000000000000000000000000000000000000000000000000000008152600401610aa990612e78565b60405180910390fd5b600360008373ffffffffffffffffffffffffffffffffffffffff1673ffffffffffffffffffffffffffffffffffffffff168152602001908152602001600020549050919050565b606060018054610b0890612991565b80601f0160208091040260200160405190810160405280929190818152602001828054610b3490612991565b8015610b815780601f10610b5657610100808354040283529160200191610b81565b820191906000526020600020905b815481529060010190602001808311610b6457829003601f168201915b5050505050905090565b80610b958161149b565b610bd4576040517f08c379a0000000000000000000000000000000000000000000000000000000008152600401610bcb90612d7a565b60405180910390fd5b60006006600084815260200190815260200160002060000160009054906101000a900473ffffffffffffffffffffffffffffffffffffffff169050600060066000858152602001908152602001600020600101549050428110610c6c576040517f08c379a0000000000000000000000000000000000000000000000000000000008152600401610c6390612ee4565b60405180910390fd5b60006007600086815260200190815260200160002060009054906101000a900473ffffffffffffffffffffffffffffffffffffffff16905060066000868152602001908152602001600020600080820160006101000a81549073ffffffffffffffffffffffffffffffffffffffff021916905560018201600090555050610cfc610cf5866119b7565b84876116be565b806007600087815260200190815260200160002060006101000a81548173ffffffffffffffffffffffffffffffffffffffff021916908373ffffffffffffffffffffffffffffffffffffffff160217905550600073ffffffffffffffffffffffffffffffffffffffff16857f80a6be100498a97a416f2eed3398281d1d00c4297200b49cf2853d773de7c9df6006600089815260200190815260200160002060010154604051610dac91906126a3565b60405180910390a35050505050565b6000610dc682611450565b6007600083815260200190815260200160002060009054906101000a900473ffffffffffffffffffffffffffffffffffffffff169050919050565b610e13610e0c611621565b83836119f4565b5050565b610e28610e22611621565b83611629565b610e67576040517f08c379a0000000000000000000000000000000000000000000000000000000008152600401610e5e90612ac6565b60405180910390fd5b610e7384848484611b60565b50505050565b6060610e8482611450565b6000610e8e611bbc565b90506000815111610eae5760405180602001604052806000815250610ed9565b80610eb884611bd3565b604051602001610ec9929190612f40565b6040516020818303038152906040525b915050919050565b610eea8161149b565b15610f2a576040517f08c379a0000000000000000000000000000000000000000000000000000000008152600401610f2190612a34565b60405180910390fd5b6000610f35826109bc565b90508073ffffffffffffffffffffffffffffffffffffffff168373ffffffffffffffffffffffffffffffffffffffff1603610fa5576040517f08c379a0000000000000000000000000000000000000000000000000000000008152600401610f9c90612fd6565b60405180910390fd5b8073ffffffffffffffffffffffffffffffffffffffff16610fc4611621565b73ffffffffffffffffffffffffffffffffffffffff161461101a576040517f08c379a000000000000000000000000000000000000000000000000000000000815260040161101190613068565b60405180910390fd5b826007600084815260200190815260200160002060006101000a81548173ffffffffffffffffffffffffffffffffffffffff021916908373ffffffffffffffffffffffffffffffffffffffff160217905550818373ffffffffffffffffffffffffffffffffffffffff1661108d846119b7565b73ffffffffffffffffffffffffffffffffffffffff167ff243cacb233b6a27a36f95f7df2e03ba36ca8d8b6f70cb85f7ab191ea55d45ad60405160405180910390a4505050565b6000600560008473ffffffffffffffffffffffffffffffffffffffff1673ffffffffffffffffffffffffffffffffffffffff16815260200190815260200160002060008373ffffffffffffffffffffffffffffffffffffffff1673ffffffffffffffffffffffffffffffffffffffff16815260200190815260200160002060009054906101000a900460ff16905092915050565b816111728161149b565b6111b1576040517f08c379a00000000000000000000000000000000000000000000000000000000081526004016111a890612d7a565b60405180910390fd5b60006006600085815260200190815260200160002090506111d0611621565b73ffffffffffffffffffffffffffffffffffffffff168160000160009054906101000a900473ffffffffffffffffffffffffffffffffffffffff1673ffffffffffffffffffffffffffffffffffffffff1614806112675750611230611621565b73ffffffffffffffffffffffffffffffffffffffff1661124f85610dbb565b73ffffffffffffffffffffffffffffffffffffffff16145b6112a6576040517f08c379a000000000000000000000000000000000000000000000000000000000815260040161129d90613120565b60405180910390fd5b806001015483116112ec576040517f08c379a00000000000000000000000000000000000000000000000000000000081526004016112e39061318c565b60405180910390fd5b8281600101819055508060000160009054906101000a900473ffffffffffffffffffffffffffffffffffffffff1673ffffffffffffffffffffffffffffffffffffffff16847f80a6be100498a97a416f2eed3398281d1d00c4297200b49cf2853d773de7c9df8560405161136091906126a3565b60405180910390a350505050565b60007f80ac58cd000000000000000000000000000000000000000000000000000000007bffffffffffffffffffffffffffffffffffffffffffffffffffffffff1916827bffffffffffffffffffffffffffffffffffffffffffffffffffffffff1916148061143957507f5b5e139f000000000000000000000000000000000000000000000000000000007bffffffffffffffffffffffffffffffffffffffffffffffffffffffff1916827bffffffffffffffffffffffffffffffffffffffffffffffffffffffff1916145b80611449575061144882611ca1565b5b9050919050565b61145981611d0b565b611498576040517f08c379a000000000000000000000000000000000000000000000000000000000815260040161148f90612de6565b60405180910390fd5b50565b60008073ffffffffffffffffffffffffffffffffffffffff166006600084815260200190815260200160002060000160009054906101000a900473ffffffffffffffffffffffffffffffffffffffff1673ffffffffffffffffffffffffffffffffffffffff1614159050919050565b6000611515826109bc565b90508073ffffffffffffffffffffffffffffffffffffffff168373ffffffffffffffffffffffffffffffffffffffff1603611585576040517f08c379a000000000000000000000000000000000000000000000000000000000815260040161157c9061321e565b60405180910390fd5b8073ffffffffffffffffffffffffffffffffffffffff166115a4611621565b73ffffffffffffffffffffffffffffffffffffffff1614806115d357506115d2816115cd611621565b6110d4565b5b611612576040517f08c379a0000000000000000000000000000000000000000000000000000000008152600401611609906132b0565b60405180910390fd5b61161c8383611d4c565b505050565b600033905090565b600080611635836109bc565b90508073ffffffffffffffffffffffffffffffffffffffff168473ffffffffffffffffffffffffffffffffffffffff161480611677575061167681856110d4565b5b806116b557508373ffffffffffffffffffffffffffffffffffffffff1661169d846104eb565b73ffffffffffffffffffffffffffffffffffffffff16145b91505092915050565b8273ffffffffffffffffffffffffffffffffffffffff166116de826109bc565b73ffffffffffffffffffffffffffffffffffffffff1614611734576040517f08c379a000000000000000000000000000000000000000000000000000000000815260040161172b90613342565b60405180910390fd5b600073ffffffffffffffffffffffffffffffffffffffff168273ffffffffffffffffffffffffffffffffffffffff16036117a3576040517f08c379a000000000000000000000000000000000000000000000000000000000815260040161179a906133d4565b60405180910390fd5b6117b08383836001611e05565b8273ffffffffffffffffffffffffffffffffffffffff166117d0826109bc565b73ffffffffffffffffffffffffffffffffffffffff1614611826576040517f08c379a000000000000000000000000000000000000000000000000000000000815260040161181d90613342565b60405180910390fd5b6004600082815260200190815260200160002060006101000a81549073ffffffffffffffffffffffffffffffffffffffff02191690556001600360008573ffffffffffffffffffffffffffffffffffffffff1673ffffffffffffffffffffffffffffffffffffffff168152602001908152602001600020600082825403925050819055506001600360008473ffffffffffffffffffffffffffffffffffffffff1673ffffffffffffffffffffffffffffffffffffffff16815260200190815260200160002060008282540192505081905550816002600083815260200190815260200160002060006101000a81548173ffffffffffffffffffffffffffffffffffffffff021916908373ffffffffffffffffffffffffffffffffffffffff160217905550808273ffffffffffffffffffffffffffffffffffffffff168473ffffffffffffffffffffffffffffffffffffffff167fddf252ad1be2c89b69c2b068fc378daa952ba7f163c4a11628f55a4df523b3ef60405160405180910390a46119b28383836001611ec3565b505050565b60006002600083815260200190815260200160002060009054906101000a900473ffffffffffffffffffffffffffffffffffffffff169050919050565b8173ffffffffffffffffffffffffffffffffffffffff168373ffffffffffffffffffffffffffffffffffffffff1603611a62576040517f08c379a0000000000000000000000000000000000000000000000000000000008152600401611a5990613440565b60405180910390fd5b80600560008573ffffffffffffffffffffffffffffffffffffffff1673ffffffffffffffffffffffffffffffffffffffff16815260200190815260200160002060008473ffffffffffffffffffffffffffffffffffffffff1673ffffffffffffffffffffffffffffffffffffffff16815260200190815260200160002060006101000a81548160ff0219169083151502179055508173ffffffffffffffffffffffffffffffffffffffff168373ffffffffffffffffffffffffffffffffffffffff167f17307eab39ab6107e8899845ad3d59bd9653f200f220920489ca2b5937696c3183604051611b5391906123a0565b60405180910390a3505050565b611b6b8484846116be565b611b7784848484611ec9565b611bb6576040517f08c379a0000000000000000000000000000000000000000000000000000000008152600401611bad906134d2565b60405180910390fd5b50505050565b606060405180602001604052806000815250905090565b606060006001611be284612050565b01905060008167ffffffffffffffff811115611c0157611c00612734565b5b6040519080825280601f01601f191660200182016040528015611c335781602001600182028036833780820191505090505b509050600082602001820190505b600115611c96578080600190039150507f3031323334353637383961626364656600000000000000000000000000000000600a86061a8153600a8581611c8a57611c896134f2565b5b04945060008503611c41575b819350505050919050565b60007f01ffc9a7000000000000000000000000000000000000000000000000000000007bffffffffffffffffffffffffffffffffffffffffffffffffffffffff1916827bffffffffffffffffffffffffffffffffffffffffffffffffffffffff1916149050919050565b60008073ffffffffffffffffffffffffffffffffffffffff16611d2d836119b7565b73ffffffffffffffffffffffffffffffffffffffff1614159050919050565b816004600083815260200190815260200160002060006101000a81548173ffffffffffffffffffffffffffffffffffffffff021916908373ffffffffffffffffffffffffffffffffffffffff160217905550808273ffffffffffffffffffffffffffffffffffffffff16611dbf836109bc565b73ffffffffffffffffffffffffffffffffffffffff167f8c5be1e5ebec7d5bd14f71427d1e84f3dd0314c0f7b2291e5b200ac8c7c3b92560405160405180910390a45050565b611e11848484846121a3565b60008290505b8183611e239190613550565b811015611ebc57611e338161149b565b15611e73576040517f08c379a0000000000000000000000000000000000000000000000000000000008152600401611e6a9061361c565b60405180910390fd5b6007600082815260200190815260200160002060006101000a81549073ffffffffffffffffffffffffffffffffffffffff02191690558080611eb49061363c565b915050611e17565b5050505050565b50505050565b6000611eea8473ffffffffffffffffffffffffffffffffffffffff166122c9565b15612043578373ffffffffffffffffffffffffffffffffffffffff1663150b7a02611f13611621565b8786866040518563ffffffff1660e01b8152600401611f3594939291906136d9565b6020604051808303816000875af1925050508015611f7157506040513d601f19601f82011682018060405250810190611f6e919061373a565b60015b611ff3573d8060008114611fa1576040519150601f19603f3d011682016040523d82523d6000602084013e611fa6565b606091505b506000815103611feb576040517f08c379a0000000000000000000000000000000000000000000000000000000008152600401611fe2906134d2565b60405180910390fd5b805181602001fd5b63150b7a0260e01b7bffffffffffffffffffffffffffffffffffffffffffffffffffffffff1916817bffffffffffffffffffffffffffffffffffffffffffffffffffffffff191614915050612048565b600190505b949350505050565b600080600090507a184f03e93ff9f4daa797ed6e38ed64bf6a1f01000000000000000083106120ae577a184f03e93ff9f4daa797ed6e38ed64bf6a1f01000000000000000083816120a4576120a36134f2565b5b0492506040810190505b6d04ee2d6d415b85acef810000000083106120eb576d04ee2d6d415b85acef810000000083816120e1576120e06134f2565b5b0492506020810190505b662386f26fc10000831061211a57662386f26fc1000083816121105761210f6134f2565b5b0492506010810190505b6305f5e1008310612143576305f5e1008381612139576121386134f2565b5b0492506008810190505b612710831061216857612710838161215e5761215d6134f2565b5b0492506004810190505b6064831061218b5760648381612181576121806134f2565b5b0492506002810190505b600a831061219a576001810190505b80915050919050565b60018111156122c357600073ffffffffffffffffffffffffffffffffffffffff168473ffffffffffffffffffffffffffffffffffffffff16146122375780600360008673ffffffffffffffffffffffffffffffffffffffff1673ffffffffffffffffffffffffffffffffffffffff168152602001908152602001600020600082825461222f9190613767565b925050819055505b600073ffffffffffffffffffffffffffffffffffffffff168373ffffffffffffffffffffffffffffffffffffffff16146122c25780600360008573ffffffffffffffffffffffffffffffffffffffff1673ffffffffffffffffffffffffffffffffffffffff16815260200190815260200160002060008282546122ba9190613550565b925050819055505b5b50505050565b6000808273ffffffffffffffffffffffffffffffffffffffff163b119050919050565b6000604051905090565b600080fd5b600080fd5b60007fffffffff0000000000000000000000000000000000000000000000000000000082169050919050565b61233581612300565b811461234057600080fd5b50565b6000813590506123528161232c565b92915050565b60006020828403121561236e5761236d6122f6565b5b600061237c84828501612343565b91505092915050565b60008115159050919050565b61239a81612385565b82525050565b60006020820190506123b56000830184612391565b92915050565b600081519050919050565b600082825260208201905092915050565b60005b838110156123f55780820151818401526020810190506123da565b60008484015250505050565b6000601f19601f8301169050919050565b600061241d826123bb565b61242781856123c6565b93506124378185602086016123d7565b61244081612401565b840191505092915050565b600060208201905081810360008301526124658184612412565b905092915050565b6000819050919050565b6124808161246d565b811461248b57600080fd5b50565b60008135905061249d81612477565b92915050565b6000602082840312156124b9576124b86122f6565b5b60006124c78482850161248e565b91505092915050565b600073ffffffffffffffffffffffffffffffffffffffff82169050919050565b60006124fb826124d0565b9050919050565b61250b816124f0565b82525050565b60006020820190506125266000830184612502565b92915050565b612535816124f0565b811461254057600080fd5b50565b6000813590506125528161252c565b92915050565b6000806040838503121561256f5761256e6122f6565b5b600061257d85828601612543565b925050602061258e8582860161248e565b9150509250929050565b6000806000606084860312156125b1576125b06122f6565b5b60006125bf86828701612543565b93505060206125d086828701612543565b92505060406125e18682870161248e565b9150509250925092565b600080600060608486031215612604576126036122f6565b5b600061261286828701612543565b93505060206126238682870161248e565b92505060406126348682870161248e565b9150509250925092565b6126478161246d565b82525050565b60006040820190506126626000830185612502565b61266f602083018461263e565b9392505050565b60006020828403121561268c5761268b6122f6565b5b600061269a84828501612543565b91505092915050565b60006020820190506126b8600083018461263e565b92915050565b6126c781612385565b81146126d257600080fd5b50565b6000813590506126e4816126be565b92915050565b60008060408385031215612701576127006122f6565b5b600061270f85828601612543565b9250506020612720858286016126d5565b9150509250929050565b600080fd5b600080fd5b7f4e487b7100000000000000000000000000000000000000000000000000000000600052604160045260246000fd5b61276c82612401565b810181811067ffffffffffffffff8211171561278b5761278a612734565b5b80604052505050565b600061279e6122ec565b90506127aa8282612763565b919050565b600067ffffffffffffffff8211156127ca576127c9612734565b5b6127d382612401565b9050602081019050919050565b82818337600083830152505050565b60006128026127fd846127af565b612794565b90508281526020810184848401111561281e5761281d61272f565b5b6128298482856127e0565b509392505050565b600082601f8301126128465761284561272a565b5b81356128568482602086016127ef565b91505092915050565b60008060008060808587031215612879576128786122f6565b5b600061288787828801612543565b945050602061289887828801612543565b93505060406128a98782880161248e565b925050606085013567ffffffffffffffff8111156128ca576128c96122fb565b5b6128d687828801612831565b91505092959194509250565b600080604083850312156128f9576128f86122f6565b5b600061290785828601612543565b925050602061291885828601612543565b9150509250929050565b60008060408385031215612939576129386122f6565b5b60006129478582860161248e565b92505060206129588582860161248e565b9150509250929050565b7f4e487b7100000000000000000000000000000000000000000000000000000000600052602260045260246000fd5b600060028204905060018216806129a957607f821691505b6020821081036129bc576129bb612962565b5b50919050565b7f455243583a2043616e6e6f7420617070726f76652072656e74656420746f6b6560008201527f6e00000000000000000000000000000000000000000000000000000000000000602082015250565b6000612a1e6021836123c6565b9150612a29826129c2565b604082019050919050565b60006020820190508181036000830152612a4d81612a11565b9050919050565b7f4552433732313a2063616c6c6572206973206e6f7420746f6b656e206f776e6560008201527f72206f7220617070726f76656400000000000000000000000000000000000000602082015250565b6000612ab0602d836123c6565b9150612abb82612a54565b604082019050919050565b60006020820190508181036000830152612adf81612aa3565b9050919050565b7f455243583a2043616e2062652063616c6c6564206f6e6c79206279206f776e6560008201527f72206f72206164647265737320617070726f76656420666f722072656e74616c602082015250565b6000612b426040836123c6565b9150612b4d82612ae6565b604082019050919050565b60006020820190508181036000830152612b7181612b35565b9050919050565b7f455243583a2043616e6e6f742073756272656e74000000000000000000000000600082015250565b6000612bae6014836123c6565b9150612bb982612b78565b602082019050919050565b60006020820190508181036000830152612bdd81612ba1565b9050919050565b7f455243583a2052656e74616c20646561646c696e65206578706972656420796560008201527f7400000000000000000000000000000000000000000000000000000000000000602082015250565b6000612c406021836123c6565b9150612c4b82612be4565b604082019050919050565b60006020820190508181036000830152612c6f81612c33565b9050919050565b7f455243583a2063616e6e6f742072656e7420746f20746865207a65726f20616460008201527f6472657373000000000000000000000000000000000000000000000000000000602082015250565b6000612cd26025836123c6565b9150612cdd82612c76565b604082019050919050565b60006020820190508181036000830152612d0181612cc5565b9050919050565b7f455243583a20546f6b656e206d7573742062652063757272656e746c7920726560008201527f6e74656400000000000000000000000000000000000000000000000000000000602082015250565b6000612d646024836123c6565b9150612d6f82612d08565b604082019050919050565b60006020820190508181036000830152612d9381612d57565b9050919050565b7f4552433732313a20696e76616c696420746f6b656e2049440000000000000000600082015250565b6000612dd06018836123c6565b9150612ddb82612d9a565b602082019050919050565b60006020820190508181036000830152612dff81612dc3565b9050919050565b7f4552433732313a2061646472657373207a65726f206973206e6f74206120766160008201527f6c6964206f776e65720000000000000000000000000000000000000000000000602082015250565b6000612e626029836123c6565b9150612e6d82612e06565b604082019050919050565b60006020820190508181036000830152612e9181612e55565b9050919050565b7f455243583a2052656e74616c206e6f7420657870697265642079657400000000600082015250565b6000612ece601c836123c6565b9150612ed982612e98565b602082019050919050565b60006020820190508181036000830152612efd81612ec1565b9050919050565b600081905092915050565b6000612f1a826123bb565b612f248185612f04565b9350612f348185602086016123d7565b80840191505092915050565b6000612f4c8285612f0f565b9150612f588284612f0f565b91508190509392505050565b7f455243583a2052656e74616c20617070726f76616c20746f2063757272656e7460008201527f206f776e65720000000000000000000000000000000000000000000000000000602082015250565b6000612fc06026836123c6565b9150612fcb82612f64565b604082019050919050565b60006020820190508181036000830152612fef81612fb3565b9050919050565b7f455243583a20617070726f76652063616c6c6572206973206e6f7420746f6b6560008201527f6e206f776e657200000000000000000000000000000000000000000000000000602082015250565b60006130526027836123c6565b915061305d82612ff6565b604082019050919050565b6000602082019050818103600083015261308181613045565b9050919050565b7f455243583a2043616e2062652063616c6c6564206f6e6c792062792072656e7460008201527f6572206f72206164647265737320617070726f76656420666f722072656e746160208201527f6c00000000000000000000000000000000000000000000000000000000000000604082015250565b600061310a6041836123c6565b915061311582613088565b606082019050919050565b60006020820190508181036000830152613139816130fd565b9050919050565b7f455243583a2043616e6e6f7420616e746963697061746520646561646c696e65600082015250565b60006131766020836123c6565b915061318182613140565b602082019050919050565b600060208201905081810360008301526131a581613169565b9050919050565b7f4552433732313a20617070726f76616c20746f2063757272656e74206f776e6560008201527f7200000000000000000000000000000000000000000000000000000000000000602082015250565b60006132086021836123c6565b9150613213826131ac565b604082019050919050565b60006020820190508181036000830152613237816131fb565b9050919050565b7f4552433732313a20617070726f76652063616c6c6572206973206e6f7420746f60008201527f6b656e206f776e6572206f7220617070726f76656420666f7220616c6c000000602082015250565b600061329a603d836123c6565b91506132a58261323e565b604082019050919050565b600060208201905081810360008301526132c98161328d565b9050919050565b7f4552433732313a207472616e736665722066726f6d20696e636f72726563742060008201527f6f776e6572000000000000000000000000000000000000000000000000000000602082015250565b600061332c6025836123c6565b9150613337826132d0565b604082019050919050565b6000602082019050818103600083015261335b8161331f565b9050919050565b7f4552433732313a207472616e7366657220746f20746865207a65726f2061646460008201527f7265737300000000000000000000000000000000000000000000000000000000602082015250565b60006133be6024836123c6565b91506133c982613362565b604082019050919050565b600060208201905081810360008301526133ed816133b1565b9050919050565b7f4552433732313a20617070726f766520746f2063616c6c657200000000000000600082015250565b600061342a6019836123c6565b9150613435826133f4565b602082019050919050565b600060208201905081810360008301526134598161341d565b9050919050565b7f4552433732313a207472616e7366657220746f206e6f6e20455243373231526560008201527f63656976657220696d706c656d656e7465720000000000000000000000000000602082015250565b60006134bc6032836123c6565b91506134c782613460565b604082019050919050565b600060208201905081810360008301526134eb816134af565b9050919050565b7f4e487b7100000000000000000000000000000000000000000000000000000000600052601260045260246000fd5b7f4e487b7100000000000000000000000000000000000000000000000000000000600052601160045260246000fd5b600061355b8261246d565b91506135668361246d565b925082820190508082111561357e5761357d613521565b5b92915050565b7f455243583a2043616e6e6f7420747261736665722072656e74656420746f6b6560008201527f6e2e2049662072656e74616c20657870697265642063616c6c20656e6452656e60208201527f74616c206265666f726500000000000000000000000000000000000000000000604082015250565b6000613606604a836123c6565b915061361182613584565b606082019050919050565b60006020820190508181036000830152613635816135f9565b9050919050565b60006136478261246d565b91507fffffffffffffffffffffffffffffffffffffffffffffffffffffffffffffffff820361367957613678613521565b5b600182019050919050565b600081519050919050565b600082825260208201905092915050565b60006136ab82613684565b6136b5818561368f565b93506136c58185602086016123d7565b6136ce81612401565b840191505092915050565b60006080820190506136ee6000830187612502565b6136fb6020830186612502565b613708604083018561263e565b818103606083015261371a81846136a0565b905095945050505050565b6000815190506137348161232c565b92915050565b6000602082840312156137505761374f6122f6565b5b600061375e84828501613725565b91505092915050565b60006137728261246d565b915061377d8361246d565b925082820390508181111561379557613794613521565b5b9291505056fea2646970667358221220cb1ccda7c1fd193914601925b2488879771a6d6cac72df226bf9ac46ab14ac4664736f6c63430008110033",
  "linkReferences": {},
  "deployedLinkReferences": {}
}